:1000000058120020051000003B390000F10F0000DD
:10001000F10F0000F10F0000F10F000000000000E0
:100020000000000000000000000000004911000076
:10003000F10F000000000000DD100000411800007A
:100040002D1300002D1300002D1300002D130000B0
:100050002D1300002D1300002D1300002D130000A0
:100060002D1300002D1300002D1300002D13000090
:100070002D1300002D1300002D1300002D13000080
:100080002D1300002D1300002D1300002D13000070
:100090002D1300002D1300002D1300002D13000060
:1000A0002D1300002D1300002D1300002D13000050
:1000B0002D1300002D1300002D1300002D13000040
:1000C0002D1300002D1300002D1300002D13000030
:1000D0002D1300002D1300002D1300002D13000020
:1000E0002D1300002D1300002D1300002D13000010
:1000F0002D1300002D1300002D1300002D13000000
:100100002D1300002D1300002D1300002D130000EF
:100110002D1300002D1300002D1300002D130000DF
:100120002D1300002D1300002D1300002D130000CF
:100130002D1300002D1300002D1300002D130000BF
:100140002D1300002D1300002D1300002D130000AF
:100150002D1300002D1300002D1300002D1300009F
:100160002D1300002D1300002D1300002D1300008F
:100170002D1300002D1300002D1300002D1300007F
:100180002D1300002D1300002D1300002D1300006F
:100190002D1300002D1300002D1300002D1300005F
:1001A0002D1300002D1300002D1300002D1300004F
:1001B0002D1300002D1300002D1300002D1300003F
:1001C0007BB972B90029BEBF00204FF0004106E0A4
:1001D00008BF00281CBF6FF000414FF0FF3000F057
:1001E00057B8ADF1080C6DE904CE002909DB002BEE
:1001F0001ADB00F04FF8DDF804E0DDE9022304B07B
:100200007047404261EB4101002B1BDB00F042F8DC
:10021000DDF804E0DDE9022304B0404261EB410176
:10022000524263EB43037047524263EB430300F0D7
:1002300031F8DDF804E0DDE9022304B0404261EB6F
:1002400041017047524263EB430300F023F8DDF8AD
:1002500004E0DDE9022304B0524263EB430370473C
:1002600053B94AB9002908BF00281CBF4FF0FF311D
:100270004FF0FF3000F00CB8ADF1080C6DE904CE82
:1002800000F008F8DDF804E0DDE9022304B070476F
:10029000704700BF2DE9F04786468C460846089E09
:1002A000154674461946002B40F0C1808542B2FACB
:1002B00082F245D94AB1C2F1200300FA02FC95400E
:1002C00094402EFA03F343EA0C0C4FEA154EA8B201
:1002D000230CBCFBFEF80EFB18CC08FB00F943EA2C
:1002E0000C43994528D9EB1808F1FF3704D29945FA
:1002F00002D9A8F102072B44A3EB0903A4B2B3FB74
:10030000FEFC0EFB1C330CFB00F044EA0344A0424D
:1003100014D92C190CF1FF3304D2A04202D9ACF14C
:1003200002032C44241A43EA07401EB1D4400023A0
:1003300034607360BDE8F0874746DDE76346F1E768
:1003400092BB431B01214FEA154EAFB2200CB3FB09
:10035000FEFC0EFB1C330CFB07F840EA03439845F8
:1003600061D9EB180CF1FF3004D2984502D9ACF1F9
:1003700002002B44A3EB0803A4B2B3FBFEFC0EFB6C
:100380001C330CFB07F744EA0344A7424DD92C1950
:100390000CF1FF3304D2A74202D9ACF102032C4482
:1003A000E41B43EA0040C0E7C2F1200395409440BB
:1003B00020FA03F12EFA03F34FEA154E9040AFB244
:1003C0000343B1FBFEFC0EFB1C10190C0CFB07F8E1
:1003D00041EA0041884522D969180CF1FF3004D266
:1003E000884502D9ACF102002944A1EB08019BB277
:1003F000B1FBFEFC0EFB1C110CFB07F743EA0143AB
:100400009F420ED9EB180CF1FF3104D29F4202D962
:10041000ACF102012B44DB1B41EA004193E760464B
:10042000E3E76146F7E76046A4E76346B8E783423F
:1004300006D916B9002108467CE7C6E900E0F9E7CD
:10044000B3FA83F78FB9834201D3724508D8BEEB64
:10045000020460EB030301209C461EB9002169E7FA
:100460003846FAE7C6E9004CF8E7C7F1200CBB4074
:100470000EFA07F522FA0CF42EFA0CF1BA401C43DE
:1004800020FA0CF3B8404FEA144901431FFA84FEE6
:10049000B3FBF9F809FB18300B0C08FB0EFA43EA22
:1004A00000439A4540D9E31808F1FF3004D29A4539
:1004B00002D9A8F102002344A3EB0A0389B2B3FBDB
:1004C000F9F809FB183308FB0EFE41EA03418E459B
:1004D0002CD9611808F1FF3304D28E4502D9A8F156
:1004E0000203214443EA0040A1EB0E01A0FB029865
:1004F0004145CE46434602D306D14D4504D201388C
:10050000B9EB020E68EB0403002EA7D0B5EB0E0288
:1005100061EB030101FA0CFC22FA07F3F9404CEA03
:100520000303C6E9003199E74046C5E74346D9E7EA
:10053000F8B5174D284603F0E4FB044630B32A69AA
:10054000A9681368284623F0400313600B684FF432
:10055000202206219847002818DB0E4F0E4EAB686C
:10056000402128465B69984700280FDB84F001048E
:1005700014F0FF0414BF39463146084801F0BCFFAF
:10058000002142F2107001F0ADFDE8E70020F8BD57
:100590008C4300003E4B0000414B0000454B0000E7
:1005A000014B1B68184700BF00000020014B18607A
:1005B000704700BF0000002030B585B004460D46EE
:1005C00010220021684603F083FC02238DF80230DC
:1005D000044B2A4621466846019302F039F805B0DB
:1005E00030BD00BFA105000080B505460E46174688
:1005F000984601F095FD034603F036FE0446DFF809
:100600001890424649F8003039463046A84754F819
:10061000090000F00DFD00BF0800000038B5EFF341
:100620001185102383F31288BFF36F8F0024104BC2
:1006300003201C805C809C80DC8000F015F90D4B51
:1006400003205C609C60DC601C61A3F558231C6780
:100650005C679C6700F0DCF8074B084A1A60084B9F
:100660001C6085F31188BFF36F8F204638BD00BF33
:10067000E804002000000E400C03002000127A0065
:1006800008030020064B93F826101A6A054BC2F3A4
:10069000026253F82130D340034A1360704700BF11
:1006A00000E00140F80400200C0300204AF203524D
:1006B00008B5384BA3F8FE230123374AA2F80431CA
:1006C000B2F8040180B20028FAD10123A2F8003167
:1006D000324ADFF8E0C093601360314B314A32494F
:1006E000C3E900C24FF40042C3E902211A612F4A54
:1006F0005A61FFF7C7FF0922264B83F8130483F8DA
:10070000A22093F880241AB993F8812491073BD052
:1007100093F8802452B90121C82083F8801400F096
:1007200051F81C4A92F88034012BFBD10022194B5E
:1007300083F8812483F880240022164B83F832202A
:1007400093F83C201207FBD543F202121A850022CF
:10075000104883F82A2090F83C309B06FBD50322F2
:100760000D4B83F81C21124B0362052380F82630C1
:10077000FFF788FF012380F8303080F852304FF4C3
:100780002543A0F8FE3308BD4FF47A7003F0ABF8B0
:10079000D2E700BF00E0014000C00140007000400F
:1007A000F804002000127A0000366E0100C2EB0B44
:1007B00021120120002D3101014B53F82000704718
:1007C000F804002010B4104B104A1B684843B2FBD9
:1007D000F3F24FF47A73A0FB03143CB9B1FBF2F3CC
:1007E000980868B15DF8044B03F07EB89200B0FB46
:1007F000F2F0A0FB0303002BF3D04FF0FF30F1E742
:100800005DF8044B704700BF0C03002000CA9A3B00
:1008100010B5EFF31081012383F310880F4A32F8EB
:1008200010309BB22BB132F81030013B9BB222F852
:10083000103032F810309BB263B9094A094CB2F853
:10084000FE3334F810009BB243F4254323EA00033F
:10085000A2F8FE3381F3108810BD00BFE804002029
:1008600000E001401C4B000030B5EFF31084012381
:1008700083F310880D4A32F810309BB263B90C49EB
:100880000C4DB1F8FE3335F810509BB22B4343F4B6
:1008900025439BB2A1F8FE3332F8103001339BB2EE
:1008A00022F8103084F3108830BD00BFE804002027
:1008B00000E001401C4B0000054BC03053F82020E5
:1008C0006FF3104243F8202053F82030704700BFE8
:1008D0000060004008B50146FFF7EEFFBFF35F8FF1
:1008E00001224B0901F01F018A400249603341F89F
:1008F000232008BD00E100E0090100F1604303F599
:100900006143C9B283F80013014B43F820207047BC
:100910001003002001234109034A00F01F00834017
:1009200042F82130704700BF00E100E00122064993
:10093000430900F01F008240203341F82320BFF319
:100940004F8FBFF36F8F704700E100E038B500258F
:100950000446036A45609D70C36993F90500FFF77B
:10096000E5FFE36993F90B00FFF7E0FFE36993F913
:100970000700FFF7DBFFE36993F90900FFF7D6FFF4
:10098000EFF31081012383F31088E369064A1C7892
:100990004FF000435068E34003435360536881F3D2
:1009A0001088284638BD00BF004008402DE9F041BE
:1009B000002640F2F9374FF001080B78067003F576
:1009C000800303F58C531B0203620B78C16127FA85
:1009D00003F303F001031B0103704B690D464362EF
:1009E0008B690446C0E90A63837868F30103837066
:1009F0004B78B34214BF42460222837862F301036C
:100A0000837091F90B20897A02F07CFF204695F9DA
:100A10000520297902F076FF204695F90720A9796B
:100A200002F070FF204695F90920297A02F06AFF4A
:100A3000EFF3108088F310884FF00041584B95F881
:100A400000C05A6821FA0CF122EA01025A605B6880
:100A500080F31088236A9E70236A1E71236A5E7277
:100A6000236A9E72236ADE72236A5E832B78DF40DC
:100A7000FB0742BF4022236ADA740622236A1A77F0
:100A80002278AAB1E369013ADB69216A1B7A134033
:100A90001B02120392B203F47063134343F001028A
:100AA00043F007038B82216A8B8A9BB29A42FBD167
:100AB000EB78AA78DB0043EA02136A78032A54D160
:100AC000F22243F04003216ADBB20B70236AD2B2F8
:100AD0009A71EA690020137B216A082B0EBF0A2352
:100AE0005B0003F002034B7353789178DB014901FB
:100AF00001F02001DBB20B43216A08721178023940
:100B00000129216A36D8FF2048701278022A08BFCE
:100B100043F01003226ADBB2D3710026C4E90366F6
:100B2000C4E90566E369EF6993F905003D7802F0D1
:100B3000E0FEE36905F0030593F90B0002F0D9FE2E
:100B4000E36945F0700593F9070002F0D2FEE3690E
:100B500093F9090002F0CDFE236A30469D707B892F
:100B60002381104B6360BDE8F081002A0CBFE222B4
:100B7000F222A8E7DBB2CB715268236A91785970F0
:100B80005078197860F301011970D1789974D97986
:100B9000127801F0A30102F05C020A43DA71BCE7AB
:100BA00000400840554943532DE9F04F1C46FF23B0
:100BB000A370237890466FF38203237080238BB059
:100BC000E3704D4B01914D4A05901B6A1268C3F3C7
:100BD00002618A40C3F3023322FA03F30093484BC5
:100BE000984548DC4FF0000AD346464D009BA3FBD6
:100BF00005230893009B07921B0A049300265FFAC3
:100C00008AF30693404B9B5DC3F34002C3F380031A
:100C1000039313460292039A1343069A934220D1F8
:100C20003A4B33F81690059B03FB09F9009BB3FB85
:100C3000F9F7B7F5807F14D807FB09F28FB1DDE92A
:100C40000701D3170992FFF7BBFA019B099A013FED
:100C5000ABB9A0F5C330A0380028B8BF40428542E8
:100C600042DC01360D2ECDD1BAF1000F40D1454501
:100C70004FF0010AC2DC00200BB0BDE8F08F049BEE
:100C8000B2FBF3F10B06ECD5C9B2484348BFFF30C5
:100C90000312A3F5C333A03B002BB8BF5B429D42B8
:100CA00019DD8B461D46184BA770995D2378C1F35B
:100CB000000060F386130298C1F3C10160F30413CE
:100CC000039860F3C3032370637861F301036370D7
:100CD000019B002BC5D0237884F803B043F00403B4
:100CE0002370A2EB0902A9E70546DDF804B0DAE7B4
:100CF0004545C0DD0320BFE700E001400C030020B4
:100D00009F860100A0860100544B0000244B000088
:100D100030BFFFF7FDBF00BF2DE9F04105460B4E88
:100D2000DFF83080324606EB0807CC1B2046084926
:100D300003F0C1F8A01942460021083C03F0C8F8AE
:100D40006C6607F10800BDE8F08100BF00000000FC
:100D5000B446000004000000074A936893F90E109F
:100D6000002907DB926993421FBF044A536843F08E
:100D700080535360704700BFB004002000ED00E0D6
:100D8000154B9A6A12F0007F9A6A14BF1E201D202C
:100D900012F0807F9A6A18BF1F2012F4801F9A6A8F
:100DA00018BF202012F4002F9A6A18BF212012F4D5
:100DB000802F9A6A18BF222012F4003F9A6A18BF47
:100DC000232012F4803F9A6A18BF24206FEA02425F
:100DD0006FEA12429A62704700ED00E010B5194BBD
:100DE0000246986A9C6A10F4805F14BF1720162090
:100DF00014F4006F9C6A18BF1820A40509D5986BDD
:100E0000986A000404D51AB19A6A22F400429A62E0
:100E100019200C4B9A6A12F4806F9A6A18BF1A2034
:100E2000D2050CD49B6A13F4005F18BF1C20054A3E
:100E3000936A43F47F43936200230B7010BD1B2021
:100E4000F5E700BF00ED00E010B51C4B0246986AC4
:100E50009C6A10F0100F14BF1120102014F0080F1E
:100E60009C6A18BF1220A40709D5586B986A00061F
:100E700004D51AB19A6A22F080029A6213200F4BAD
:100E80009A6A12F0010F9A6A18BF142012F0200F0C
:100E90009A6A18BF1520D40658BF9B6A074B9A6AF6
:100EA000920642BF5A6A22F400525A629A6A42F08B
:100EB000FF029A6200230B7010BD00BF00ED00E03E
:100EC00070B5444B06465B6800259CB0C3F308032D
:100ED00085F31188BFF36F8F02F07F40B0F17F4F31
:100EE00011D102F00C0008280DD010074CBF0E469F
:100EF00001250022033B8DF80720032B05D8DFE8EE
:100F000003F01E5C60592E46F3E700249DF807307D
:100F10009BB96822314602A802F0CDFF099B002D43
:100F200053D0C3F3080222B96FEA53236FEA432375
:100F30000993204602A902F0F6FC1CB070BD254BB7
:100F4000DA6A9107E1D4DA6A002ADEDBDA6A520053
:100F5000DBD55A69B16942F480725A61BFF34F8F91
:100F6000BFF36F8F5A6931F8021C22F480725A6104
:100F7000BFF34F8FBFF36F8F4DF60272914209D0CE
:100F80009A6AD2B242B101200DF10701FFF75CFF6E
:100F90000446BBE73468B9E79A6A12F47F4F05D07C
:100FA00001200DF10701FFF719FFF1E79B6AB3F587
:100FB000803FAAD3FFF7E4FEEAE700200DF1070126
:100FC000E4E700200DF10701EDE723F4FF7323F0C0
:100FD0000103ADE700ED00E0044B5A6942F0100256
:100FE0005A615A6922F008025A61704700ED00E028
:100FF000EFF30880EFF3098101B57246FFF760FF58
:1010000001BD00BF102080F3118808484FF4006133
:10101000401880F30988EFF314800221084380F31D
:101020001488BFF36F8F00F0D7F800001805002078
:10103000084B9B6883420BD1EFF3058343B1064B0A
:101040005A6842F080525A605A6A22F400425A6248
:1010500002F0F6BEB004002000ED00E06FF00A01DF
:10106000084A9368D966084998664B6843F08053EC
:101070004B60002383F31188BFF36F8F9368D86EA2
:10108000704700BFB004002000ED00E0104A9368F4
:1010900083F8B100EFF31183102383F31288BFF3B9
:1010A0006F8F4FF00061936920F0FF009360094A51
:1010B0005160596E084A1160002193F8B120104325
:1010C0009A6E996682F31188BFF36F8F704700BFE5
:1010D000B004002000ED00E09004002019498A6867
:1010E00082F8B1E04FF030001044EFF3098C80E853
:1010F000F01F1EF0100F03D102F1700080EC108A77
:1011000074467046FFF7C2FFA6460E498A688646B7
:101110001EF0100F03D00023E1EE103A03E002F1BD
:10112000700090EC108AEFF3148323F0040383F330
:101130001488BFF36F8F02F1300090E8F01F8CF33A
:1011400009887047B00400201EF0040F0CBFEFF3B5
:101150000880EFF30980816911F8021C0229FFD091
:1011600001B502F0E6FB01BD40B2002807DB012318
:101170004109034A00F01F00834042F821307047C4
:1011800000E100E040B200280CDB012206494309DF
:1011900000F01F008240203341F82320BFF34F8F1F
:1011A000BFF36F8F704700BF00E100E040B200283E
:1011B00001F10101ACBF00F16040064B4FEA0111A3
:1011C000C9B2ABBF00F5614000F00F0080F800131A
:1011D0001954704714ED00E0124A08B5124B22F082
:1011E0007F029A60BFF34F8FBFF36F8FD3F88820D1
:1011F00022F47002C3F88820D3F8882042F4A002B9
:10120000C3F888204FF04042C3F83422BFF34F8F19
:10121000BFF36F8F00F070FC01F00EF800F07AF869
:1012200000F0AAFC0000000000ED00E042F8203CC5
:10123000009B0D4942F81C3C019B21F0010142F842
:10124000183C029B42F8081C42F8143C4FF0807393
:1012500042F8043C002383664FF47D43203A026544
:10126000C0F8B030704700BFE9050000104B9B6824
:1012700083421AD1EFF30580B8B9EFF31181102240
:1012800082F31288BFF36F8F1A7B22F002021A7367
:10129000EFF3148323F0040383F31488BFF36F8FF9
:1012A00081F31188BFF36F8F70476FF0150070479F
:1012B000B004002000B50E461546EFF3148323F06A
:1012C000040383F31488BFF36F8FBFF36F8F0A4B50
:1012D000426E9860094B1A602C4686F309884FF0DD
:1012E0000000074B984720464FF000014FF00002E6
:1012F0004FF00003034C2047B0040020900400206E
:1013000051390000E90500001022014B1A617047B5
:1013100000ED00E0002310210348C2180133602BC8
:1013200082F80013F9D1704700E100E008B5EFF34F
:101330000583064A103B02EBC30152F833004968AB
:101340008847BDE80840FFF707BD00BFB443000071
:1013500008B5024B1B689847002008BD9404002084
:10136000034B044A1860937843F00203937070476C
:10137000940400200400002008B50649064821F026
:101380000701C1F1005202F5002202F044FA0020E8
:1013900008BD00BF5F1200209804002068B161B151
:1013A0000A68074B496853F82200012203688A4003
:1013B00023EA02030360002070476FF015007047B6
:1013C000A049000060B159B10A68074B496853F859
:1013D0002220012310688B400343136000207047D4
:1013E0006FF01500704700BFA049000008B507481E
:1013F00002F087FC38B10648FFF7B2FF0448FFF758
:10140000D5F8002008BD6FF01200FBE7A0430000F4
:10141000151400000A2838B50446074D04D1AB68FE
:101420000D2128465B689847AB6803485B68E1B2CA
:101430009847204638BD00BFA0430000F7B502F42E
:101440004033B3F5403F0E461446476848D0264D1A
:101450001540002D44D13B7BFF2B16D06FF00A00C6
:101460004FF0010C07F10B03C01B5A78591C7ABBD3
:101470000120FFF7F9F91D4A012092F8BB3423EA55
:10148000050382F8BB34FFF7C3F93B79684603F0E4
:101490000F0343EA061114F400331CBFC4F3C04326
:1014A00043F004038DF80010610748BF43F0400388
:1014B000E2064FEA840448BF43F0100304F440649A
:1014C0001C4300220121019400F012F803B0F0BD8A
:1014D000B24202BF1B180CFA03F31D430B46C4E7CC
:1014E0006FF08500F2E700BF2000400000E00140FF
:1014F00070B5EFF31085012383F31088174B1C6838
:101500001CB9174AD4704024D4701A6801321A608A
:1015100085F31088134E00EBC101884213D1EFF31D
:101520001081012282F310881A6812B11A68013AF8
:101530001A601A681AB90A4BDA708022DA7081F3DD
:101540001088002070BD0478456804F00F02120175
:1015500002EB141246F822500830DEE708030020A0
:10156000000D084000080840036993F94730002B3C
:1015700008DB0122590903F01F0302FA03F3024AB0
:1015800042F82130704700BF00E100E0036993F9A1
:101590004730002B0DDB01215A0903F01F0399404E
:1015A00002F12003034A42F82310BFF34F8FBFF329
:1015B0006F8F704700E100E010B50469636F0BB1F5
:1015C000A16F984794F94130044AC03352F8231070
:1015D0006FF3104142F8231010BD00BF00600040BF
:1015E00010B50469636F5BB1A16F984794F94330FC
:1015F000044AC03352F823106FF3104142F823100D
:1016000010BD00BF0060004010B50469636F5BB19E
:10161000A16F984794F94530044AC03352F823101B
:101620006FF3104142F8231010BD00BF006000406E
:1016300010B50469636F5BB1A16F984794F94730A7
:10164000044AC03352F823106FF3104142F82310BC
:1016500010BD00BF0060004070B504460E46154640
:10166000012141F288320068FFF79EFA002832D14A
:101670002379042B2FD8DFE803F00403040C0C00BB
:101680000323B3706379032B25D8DFE803F0021737
:1016900002056FF0850070BD0123F370A379042B60
:1016A00019D801A252F823F09316000093160000F7
:1016B000E1160000C1160000DD1600000023ECE773
:1016C0000223737008232B72E279012A0BD009D907
:1016D000023A012ADDD96FF01500DCE70023F0E7BC
:1016E0000323EEE7002300202B73A873D3E700BF8A
:1016F0004FF4C072304B2DE9F341C3F8002340F2A0
:101700008112C3F804234FF4C172C3F8082340F2D6
:101710008312C3F80C230022044601211046FFF770
:1017200045FD012100220846FFF740FD002201216E
:101730000220FFF73BFD002201210320FFF736FDC9
:101740000020FFF711FD0120FFF70EFD0220FFF73B
:101750000BFD63680021186801AA256902F065F98C
:10176000041E22DB019B002219791868FFF7C0FED6
:10177000041E1ADB05F13C0605F15C0705F1700853
:1017800043463A46314605F13400FFF765FF04460B
:1017900058B93146C5F86080AF65281DFFF706F9D6
:1017A00038B995F94700FFF7EDFC204602B0BDE8D7
:1017B000F0816FF00404F8E7006000404FF0E02390
:1017C00010B50F499C691A6908689B690D4902F4B4
:1017D000803234B993B903464AB90A681044C01A32
:1017E00010BD002B08BF03460AB9A342F5D90A6809
:1017F00002440A604FF0E0221269EEE70446F3E784
:10180000AC040020A804002010220A4B002083F81A
:10181000232044F62062084B1A60084B44F61F62EE
:1018200018604FF0E0235A6198611A6942F007028C
:101830001A61704700ED00E0AC040020A80400200D
:10184000684620F007018D4619B5FFF7B7FF11492B
:10185000114B0868D3E90042001942F10002C3E9C4
:10186000000200230B6044F620630C4AD2E90041D9
:10187000001BB0FBF3F043431B1941F10001C2E927
:10188000003100F0B3FDFFF767FABDE81940854667
:10189000704700BFA8040020B8000020B00000205E
:1018A0002DE9F041DFF8F08099B1421C0BD14FF0E7
:1018B000E022136923F0010313614FF07F43C8F85E
:1018C0000030BDE8F081D8F80060012807DC00276F
:1018D0000BE0431CD8F80060F7D140F2453040F2ED
:1018E00046339842A8BF1846471EEFF311851023D0
:1018F00083F31288BFF36F8FFFF760FF4FF0E02391
:10190000214C9969D4E9002380184FF0000243F17B
:101910000003C4E900031D4B1A601D4B1A68831AAB
:101920002ED444F6206C0CFB073303F59C431F3385
:10193000B3FBFCF7131A40F2E2420CFB073393426D
:1019400038BF1346134A934228BF13464FF0E02294
:10195000C8F80030013B90695361002381429361D4
:10196000A1EB000338BF9B19D4E900125B1842F1C8
:101970000002C4E9003285F31188BFF36F8FA0E73E
:1019800040F2E243E2E700BFB8000020A8040020D4
:10199000B0000020A06EFF00AC04002038B5EFF3CB
:1019A0001185102383F31288BFF36F8F084B1C68D7
:1019B000084B1B68E41AFFF701FF85F31188BFF39A
:1019C0006F8F44F620632044B0FBF3F038BD00BFB6
:1019D000B8000020B000002038B5EFF311851023C7
:1019E00083F31288BFF36F8F064B9C6802F09CF95B
:1019F00085F31188BFF36F8F2046BDE83840FFF7AD
:101A000017BB00BFB004002038B5094B53F8204085
:101A1000013053F82050A54200D838BD636823B187
:101A2000204602F084F90834F5E723689847FAE77E
:101A30005C4A0000012270B52A4B032086B01A7060
:101A4000FFF7E2FF00F052FD02F08DF90420FFF7EE
:101A5000DBFF254C254D2646AE4204F1300410D361
:101A600000F082FA204C224EAC4226D300F090FACD
:101A7000FEF75EFD1F4A137B23F00103137306B0CC
:101A800070BD54F80C3C059354F8103C049354F882
:101A9000143C039354F8183C029354F81C3C0193F3
:101AA00054F8203C009354E90A2354E90C0100F057
:101AB000C5F854F8303C5E65CDE7D4E90A23B3F1AC
:101AC000FF3F08BFB2F1FF3F05D052EA0301206893
:101AD00003D102F054F93034C6E73146183000F033
:101AE0000BFCF8E7F0040020B4460000B446000008
:101AF000393E00007801002008B50348034A002160
:101B0000121A02F02CF908BDB0000020F4040020E5
:101B1000B82370B5134E012203FB0066002386B084
:101B2000CDE904230F220193CDE9023218234FF4AB
:101B3000A0720D4D0D4903FB0055044602FB001138
:101B40000B4B3046009500F079F8737B2C7423F032
:101B500004037373074B013403EBC423EE606B6023
:101B600006B070BDC0000020B0040020180D002099
:101B7000693D000018050020BFB50020FFF744FFB5
:101B8000264B83F308880024F023254D254E85F845
:101B90002230EC772C766C76AC7685F820406B6A38
:101BA000214F43F4E0236B62FFF716FAFFF7ACFB1B
:101BB0004FF0FF3340F20112AB62EB621B4B1C4D46
:101BC0009A81B3601C6602F09BF80120FFF71CFFAE
:101BD0000220FFF719FF00F0FBF9164BB5610593E2
:101BE000012315494FF48062CDE9034328463B4663
:101BF000CDE90144009400F021F806466A7B2846AE
:101C000022F004026A7302F0CEF82046FFF780FF4C
:101C10003A4631462846FFF74DFB00BF180D00201D
:101C200000ED00E0B0040020351A00003002002072
:101C300078010020AE4B0000580E00202DE9FF4136
:101C4000984600F15803C0E916330E9B0026037333
:101C50000423D51D437325F007050D9B0D440F4646
:101C600083732946C0E906668660C6730446FFF79B
:101C700053F80C9B073002930B9B20F00700019355
:101C80000A9B2D1A00932A46434639462046FFF701
:101C9000CDFA054B66659B6803B11B6E284623662B
:101CA00004B0BDE8F08100BFB004002038B50D4D90
:101CB0002B4653F81C4F9C4200D004B9EC68AB682B
:101CC00038B95A7BD20604D1A26912B9DA897F2ABF
:101CD00005D89C4202D0204600F056FA2346AB615C
:101CE00038BD00BFB004002008B590F90D200146B2
:101CF000002A437B04DA03F07F03437302F041F8C8
:101D0000044B9868431A58425841BDE80840FFF711
:101D1000CDBF00BFB004002070B490F90D30427BFD
:101D2000002B29DBD30627D183692BBB134962F033
:101D30007F0242730A4652F81C4F944218BF234652
:101D40000C6A23B9C0E90024206008620CE090F915
:101D50000E5093F90E60B5420AD0AE4208DD5A68C3
:101D6000C0E9003210605860002070BCFFF79EBFD1
:101D70009C42E7D01B68E4E770BC7047B0040020C9
:101D8000002A2DE9F0410E460CBF10210821427BAC
:101D9000044611420FD141EA0203D20918D143731C
:101DA00008291BD00120FFF781FFBFF35F8F637B02
:101DB00023F0600363732B4B9B68A3424BD1EFF37B
:101DC0000583002B47D13046BDE8F041FFF746B907
:101DD00003F07F03437301F0D4FFE1E7A36813B17D
:101DE000204601F0D6FF04F1180002F04BF8A56D73
:101DF00004F15807AF4211D04FF0000875B12846E2
:101E000001F0C7FF05F1180002F03CF82846C5F8BC
:101E10006C80FFF781FFA56DAF42EFD1114DAB682C
:101E20009C4206D00120FFF741FF2046FFF71EFA33
:101E3000BBE7EFF30583002BF4D00120FFF736FF5B
:101E40002046FFF713FA40F20112074B9A81002255
:101E5000AB601A66A9E786F31188BFF36F8FBDE800
:101E6000F08100BFB00400203002002070B590F96E
:101E70000D200146002A437B04DA03F07F034373FD
:101E800001F07FFF154A4B7B104663F07F034B73D5
:101E900050F81C3F146A834208BF002323B9C1E9EC
:101EA0000004216011620CE091F90E5093F90E606C
:101EB000B5420ED0AE420CDD5868C1E90030016079
:101EC00059609068BDE87040431A58425841FFF786
:101ED000EDBE9C42E3D01B68E0E700BFB0040020E9
:101EE00049B9EFF3058030B9054B9A699B689A426E
:101EF00001D0FFF7B3B881F31188BFF36F8F70473C
:101F0000B004002010B5EFF31184102282F3128880
:101F1000BFF36F8F427B510704D484F31188BFF362
:101F20006F8F10BD22F004024273FFF7F5FE2146C9
:101F3000BDE810400148FFF7D3BF00BFF104002007
:101F4000034648B9EFF3058232B9064A91699268AF
:101F5000914201D0FFF782B883F31188BFF36F8FEE
:101F6000704700BFB0040020EFF31181102383F30A
:101F70001288BFF36F8F054B9A68D37B013BD373F5
:101F800081F31188BFF36F8F704700BFB00400204A
:101F900038B5EFF31185102484F31288BFF36F8FE7
:101FA0000A4B00209A68D37B0133D373FFF77EFE80
:101FB00085F31188BFF36F8FEFF3118084F31288DC
:101FC000BFF36F8FBDE83840FFF7BABFB004002001
:101FD000024B03F11C02C3E907227047B004002042
:101FE000F8B5EFF31185102383F31288BFF36F8FD9
:101FF00019498868437B03F07F03437301F0C1FEF6
:1020000008468B685A7B62F07F025A7350F81C2F87
:102010000C6A824208BF002222B9C3E9000423608F
:102020000B620CE093F90E6092F90E70BE420ED076
:10203000B7420CDD5168C3E900210B6053600120F9
:10204000FFF734FE2846BDE8F840FFF707B8A24284
:10205000E3D01268E0E700BFB004002050EA0103BB
:102060002DE9F04105460E4603D1FFF7B9FF0020E8
:102070002BE0831C71F1FF3329DB01F018FF2C18D2
:10208000EFF31188102383F31288BFF36F8F124F81
:10209000124BB8681860FFF727FEB86810492A4647
:1020A0003346183000F028F9BA684046537B43F0B5
:1020B00010035373FEF7D2FF01F0F9FE201A63EB11
:1020C0000303012873F10003D1DBBDE8F0816FF059
:1020D0000104241AD4E700BFB0040020D804002073
:1020E000393E0000B1F1FF3F08BFB0F1FF3F08B536
:1020F00006D10A4B986801F065FE4FF0FF3008BD2D
:10210000FFF7ACFFC11709304FF00A024FF0000390
:1021100041F10001FEF7A4F8F1E700BFB004002090
:10212000014B9868704700BFB00400200122044BA7
:10213000C01A044BC0105843034B1A54704700BFD9
:10214000E8020020ABAAAAAAF1040020C3897F2BD1
:1021500012D80A4B1B6863B1094B90F90E201B681B
:102160009A4209DB437BDB0606D1064BC31A18BF34
:10217000012303F0010070470023FAE7E004002088
:10218000DC040020C000002070B50E4B0E4C1E7CFD
:10219000054606EB460304EBC304204601F072FE3D
:1021A00000220A4B28469A55FFF7D0FF48B1084B4A
:1021B0002046BDE870401A680649013AD31700F07E
:1021C0009BB870BDB0040020E8020020F10400209C
:1021D000E00400202D21000038B5EFF31185102315
:1021E00083F31288BFF36F8F104B114A9C681068FD
:1021F000A04206D1FFF7C8FF85F31188BFF36F8FA8
:1022000038BD00211B7C11600A4AD35C002BF3D03F
:102210002046FFF79BFF0028EED0637BDB0602D150
:102220002046FFF723FE2046E4E700BFB00400206D
:10223000D8040020F104002008B50648064A0749E2
:10224000121A01F08EFDBDE80840054A054906480E
:1022500001F087BD00000020B0000020F04B00001E
:1022600000000000F04B000000000020034B1B6842
:102270000BB9FFF793BB0020704700BFE4040020B8
:1022800030B570B10B4B5B6898420AD0036843B11C
:10229000D3E90421D0E90445121941EB0501C3E952
:1022A0000421D0E9003213605A600023C0E90033F2
:1022B00030BD00BF9400002010B50E4B1C689C423E
:1022C00004D1FFF7D3FF6FF0004010BDFFF7CEFF42
:1022D000002CF8D0D4E904321B1A62EBE072B3F19F
:1022E000004F72F10001EEDA002AACBF1846002060
:1022F000EBE700BF94000020B3F1FF3F08BFB2F14D
:10230000FF3FF8B504461D4616465ED08160EFF3E8
:102310001187102383F31288BFF36F8F013275F199
:10232000FF3324DA6FF001032D49D1E900209B1A15
:102330004FF0FF3262EB00009E1B60EB0500012EA8
:1023400070F1000301DA01260020C4E90460254E83
:10235000D6F800C07568B44508BF4FF0000CBCF15A
:10236000000F0DD1C4E900652C6074601CE0FFF71C
:102370007DFF013645F10005361845EBE070E4E7D6
:10238000DCE90420D4E90431934271EB000E1DDA3C
:10239000D21ADCF8043060EB0100CCE90420C4E977
:1023A00000C31C60CCF804403368B34209D09C429F
:1023B00007D10D4B1C6824B9FFF77EFF2146FFF7BC
:1023C0006FFA87F31188BFF36F8FF8BD9B1A61EB2B
:1023D0000001AC45C4E90431C4D0DCF800C0BEE75C
:1023E0000003002094000020E40400202DE9F84FB1
:1023F000EFF31186102383F31288BFF36F8FDFF89A
:10240000B8902B4D4FF0000A2860D9F800004FF02B
:10241000000B484508BF0020264C3746D4E9001E73
:102420002B6880B3D0E904864FEAE37C43457CEB1C
:10243000060206DAB8EB030266EB0C06C0E90426D6
:1024400021E018EB01014EEBE873C0E904ABC4E9ED
:102450000013FFF715FF87F31188BFF36F8F8368B1
:102460009847EFF31187102383F31288BFF36F8F20
:102470002B68D9F80000A3EB080348453E462B60C3
:10248000CBD1D4E9001E59184EEBE373C4E9001315
:1024900000242C60FFF710FF2146FFF701FA87F3B5
:1024A0001188BFF36F8FBDE8F84FFFF795BE00BFEF
:1024B000E4040020000300209400002010B5EFF396
:1024C0001184102383F31288BFF36F8FFFF7CEFEC2
:1024D0000346054AD2E90001181841EBE37184F381
:1024E0001188BFF36F8F10BD00030020014801F079
:1024F000ECB900BFB34B00000FB407B504AA064BFC
:1025000052F8041B1868019200F0A2F803B05DF8BD
:1025100004EB04B0704700BF484900002DE9F041CA
:1025200001260746B24201DCBDE8F0813B461F466A
:1025300013F8014B002CF7D0252CF8D11C7802376A
:10254000252CF3D00023DFF804819C461D461F2D67
:1025500018D8A4F1200EBEF1100F09D9A4F1300E45
:10256000BEF1090F1ED80A24202504FB03E304E072
:1025700028FA0EFE1EF0010F06D017F8014B002CB2
:10258000E5D128E07F2D1CD8A4F1300EBEF1090F53
:10259000E9D9242C10D1BCF1000F46D0B34246D06B
:1025A0000023EAE724F0040EBEF12A0FF8D06C2CC9
:1025B00009D145F08005E0E724F0040EBEF12A0FB2
:1025C000EED06C2C22D06C2C1BD8682C23D06A2C1B
:1025D00028D04C2C26D0BCF1000FA5D0B445A1D1F9
:1025E00044F020070B68A7F1650CBCF1020F01D97C
:1025F000612F1ED1073323F00703083301360B6028
:102600008FE7742CB9D07A2CB7D0E4E72C0648BFFA
:1026100045F40075CDE7EC0548BF45F4007545F479
:102620008075AAE745F42075A7E79C46B8E76324C0
:10263000D6E7692C02D007D8632C03D02F0601D52A
:10264000AC05D7D40433D9E7732CF6E78928010009
:102650002DE9F04F436893B0804601938378980743
:10266000CDE9061216D50B4600250B921F789FB1B7
:10267000252F15D00133059341463846019B01357E
:102680009847002880F22A8498F8023043F0040327
:1026900088F802304FF0FF35284613B0BDE8F08FC0
:1026A0005F789A1C252F0592E6D000242646A24684
:1026B000A346BBF11F0F32D8A7F12003102B0AD875
:1026C000DFE803F02409092A0909091B090909227D
:1026D000092709091900A7F13003092B2DD92A2F41
:1026E00039D154B90B9B1BF0400F53F8042B0B93BB
:1026F00029D0164601E04BF0010B059B13F8017B36
:102700000593002FD5D15BE04BF0020B4BF0040B8F
:10271000F3E74BF0080BF0E74BF0100BEDE7BBF1E4
:102720007F0F3FD8A7F13003092BD8D81BF0400FFB
:1027300003D00A2202FB0636DFE70A2202FB0A3A2E
:102740004BF0200BD9E7B2F1000AF9DACAF1000A1E
:102750004BF0280BD1E72E2F05D11BF0400F9BD15A
:102760004BF0400BC9E7242F1CD1002C00F03E8118
:10277000079B1BF0400F0B930AD152460BA90698FA
:10278000FFF7CCFE0B9B1A1DD3F800A00B92B4E709
:1027900032460BA90698FFF7C1FE0B9B1A1D1E6857
:1027A0000B92AAE76C2F00F00E8100F20581682FD2
:1027B00000F011816A2F00F016814C2F00F0138178
:1027C00034B1079B22460BA906980B93FFF7A6FE90
:1027D000002E47F02009B8BF2BF0400BA9F165038C
:1027E000BCBF00261FFA8BFB022B40F20481B9F11B
:1027F000610F40F05882FF431BF0400F0CA84BF4D0
:10280000C05407F0200308BF4FF0FF360493314651
:102810000B9B073323F0070303F1080293ED000B32
:102820000B92049A01F086FC0130C3B2B3420293CA
:1028300001DB029B5E1E01230C9FA3464FF0700933
:10284000039307F10903122B0DD907F16303C62B7C
:1028500040F20A8107F2E73340F2CE72934294BF0E
:102860000323042303939DF8342002F00C0312F099
:10287000010240F014811BF0020F40F00D811BF0AB
:10288000040400F0F380002B40F00C8120231BF4A3
:10289000405F20D1029A002E02F1480208BF0126B3
:1028A0006A44133A029921B112F8011D302900F04F
:1028B0002E811BF0100F029A18BF3246391DC0F24C
:1028C0002B81B74280F22881BA424BF4005B40F37F
:1028D00025817E1C961B1BF40052089200F020817B
:1028E00027EAE774013403B10134002E00F020819F
:1028F000721C1444A245CCBFAAEB040400241BF0B4
:10290000090F04D12C44A54240F0178100243BB1AB
:1029100018464146019B013598470028FFF6B4AEA2
:102920001BF4006F12D041463020019B98470028CD
:10293000FFF6AAAE049B41460235C3F17800019B25
:1029400000F0F80098470028FFF69EAE1BF0080F35
:1029500005D12C44AC4240F0FC8025460024089B65
:10296000002B00F0158127EAE77A7642A7EB0A07E9
:10297000029B0AF1FF3A05F101094146BB4289BFBA
:102980000CAB3020FB1858795645019B00F3EA80C8
:102990009847002807F10107FFF676AEBAF1FF3F2E
:1029A00008D141462E20019B98470028FFF66CAEC7
:1029B00005F102094D46DBE7742F3FF49EAE7A2FF6
:1029C0003FF49BAEFCE61BF0800F18BF4BF4007B7E
:1029D0004BF0800B91E61BF4807F18BF4BF4007B1B
:1029E0004BF4807B89E64BF4207B86E626465446F2
:1029F000B346B24681E6FF431BF0400F07F02003C9
:102A000008BF0626B9F1650F04930B9B03F107037A
:102A100023F0070303F1080293ED000B0B9211D191
:102A2000711C00224BF4805BC9B2134611290CA81B
:102A300028BF112100F0F2FA0C9FC3B202930223C7
:102A40000393FEE6B9F1660F05D14BF4005B334604
:102A500001221121EAE7F1B200224FF065090129B4
:102A6000134638BF0121E1E70223FBE6002B3FF4C8
:102A70000EAFBAF1030F39DC9DF83430A14E13F0DC
:102A8000080FA14B08BF1E463746B94617F8010B81
:102A9000A0BBAE1BB14478E023BB2B23F7E61BBBE6
:102AA0002D23F4E62022BAF1040F12DD1BF0080FEB
:102AB000AAF104040ED12C4441462020019B01358B
:102AC000029298470028FFF6DFADA542029AF3D1A3
:102AD00092B1002441461046019B013598470028D9
:102AE000CADAD1E52B22DEE72D22DCE71BF0080F46
:102AF000AAF10304C0D1DEE71446BDE7049B4146BA
:102B0000C01A019BC0B298470028BEDABCE5029902
:102B10000139C9B20291C5E6561EDCE60026DAE6A6
:102B20001BF4006F039A0CBF032405241444DAE657
:102B30001BF0100F18BF0134DCE609934146019BDE
:102B400020209847002805F10105099BBFF6DBAE60
:102B50009AE541463020019B013598470028BFF691
:102B6000F9AE91E598470028FFF68EAD1BF0100FE7
:102B70000BD0BAF1FF3F08D105F1020941462E20E2
:102B8000019B98470028FFF67FAD4D464C442CE250
:102B900041469DF83500019B98470028FFF674AD2B
:102BA000002E65DD41462E20019B98470028FFF648
:102BB0006BAD4FF0010A029B4146D3469A45B7BF21
:102BC0000CAB302053445879019B98470028FFF6FE
:102BD0005BAD0AF1010A5645EDDA02355D44049B0E
:102BE0004146A9EB0300019BC0B298470028FFF6BD
:102BF0004BAD002F4146019BB6BF2D202B207F42BD
:102C000098470028FFF640AD039B042B3DD14FF4BD
:102C10007A794146019B0335B7FBF9F606F130009E
:102C2000C0B298470028FFF62FAD09FB16774FF08A
:102C300064094146019B0135B7FBF9F606F1300006
:102C4000C0B298470028FFF61FAD09FB16774FF07A
:102C50000A094146019B0135B7FBF9F606F1300040
:102C6000C0B298470028FFF60FAD09FB167713E0B6
:102C70001BF0100F01D10135B1E741462E20019B19
:102C8000023598470028AADAFEE4039B0235032B9D
:102C9000CDD0039B012BDAD107F1300005F10109FA
:102CA0004146C0B26CE7A7F16303122B00F2FF802C
:102CB000DFE813F013005700FD00FD00FD00FD00EC
:102CC0005700FD00FD00FD00FD00FD001701F800AC
:102CD000FD00FD002C00FD00B9000B9B01240CAF92
:102CE0001A1D1B680B928DF830301BF0080F2ED088
:102CF0003E19B946B1452CD1EF1BB944AAEB0404E7
:102D000043E700BFE54B0000E14B00000B9B1A1DA1
:102D10000B921F68AB4B002F08BF1F461BF0400FE4
:102D2000384614BF31464FF0FF3101F0D9F8044660
:102D3000DBE741462020019B98470028FFF6A4AC22
:102D4000013EB442F5D35544B246AD1BD0E75646DA
:102D5000F7E7414619F8010B019B98470028C9DAAB
:102D600092E41BF0800F0B9B35D01BF4007F2DD01D
:102D7000073323F0070303F10802D3E900010B92A4
:102D80002BF0100900291FFA89F936DA404249F47C
:102D9000806961EB41010DF1300B0A235A4601F0C5
:102DA000ABF819F0400FA0EB0B0B65D029F0010236
:102DB0005E4592B240F3B280002F00F0A98019F076
:102DC00010033446914626D002345CE01A1D186880
:102DD0000B92C117D4E71A1D1BF4807F19680B9260
:102DE00001D10846F5E71BF4007F19BF48B241F353
:102DF000C01108B241F3C031C2E750EA0103CAD1A1
:102E00001BF0400FC7D0002EC5D12BF0110B34465C
:102E10001FFA8BF9B34640F2064319EA03031CBFBD
:102E2000013400232FE02BF0100B0A231FFA8BFB39
:102E30001BF080040B9A57D01BF4007115BF0732AA
:102E4000101D22F007020B900FBF106802F108015D
:102E50000B91D2E9000150EA010252D12BF0160980
:102E60001BF0400F1FFA89F94FD0002E4DD12BF0E7
:102E7000170B1FFA8BF9B34619F0100352D0002F2D
:102E80004ED10BF1010419F0080F5ED119F0010FBA
:102E900006D0A2456EDDAAEB040404EB0B065446F3
:102EA00022464DE04BF0100B10237827C0E7B9F114
:102EB000780F04D1C7F1780343F01003B8E7414617
:102EC0002520019B98470028FFF6DEAB4146384697
:102ED000019B98470028FFF6D7AB0235059BFFF70B
:102EE000C5BB08230027A3E7111D10680B911BF435
:102EF0008071B0D01BF400711ABFC0B2214680B2FD
:102F0000A9E72BF0060B1FFA8BF90DF1300B45E703
:102F100029F0110934461FFA89F97CE79146ABE79D
:102F20005C4651E75C4676E7CDE902234146202026
:102F3000019B98470028FFF6A7AB029A039B01323A
:102F40009245F1DC2C1BA5181446F3B14146302004
:102F5000019B98470028FFF697AB6FB90135A9464A
:102F60002E44A6EB09035B4521DC5D460CAE5DBB40
:102F7000D944C3E65E4693E7023541463846019B95
:102F800098470028EBDAFFF77FBB40F2064319EAC7
:102F9000030FE4D019F0020F05F10105414614BFFB
:102FA0002B20202019F4806F18BF2D20E7E7414621
:102FB0003020019B09F1010998470028D1DAFFF779
:102FC00063BB00BFE94B0000013D4146019B705DC2
:102FD00098470028CBDAFFF757BB41462020019BDA
:102FE000013598470028FFF64FAB631B002BF4DC3C
:102FF00074E700BF1FB502AB074A00934FF0CC3314
:1030000001F05EF8DDE90201C00840EA4170C9083C
:1030100005B05DF804FB00BFCDCCCCCC2DE9F04F62
:103020009DB055EC104BCDE90C322A46C5F3130385
:103030000B91290DD20FC5F30A5507908DED050AA6
:103040000A9275B922461A431BD130230126056026
:1030500043710A9B43F00203037130461DB0BDE883
:10306000F08F40F2FF7295424DD1059A002613432E
:103070000A9B079A14BF43F0080343F0040313713B
:10308000EBE7059A4FEA83089A46B14D02F0010238
:103090000992059A48EA9278970001221646C5F1EE
:1030A000000B0892584600F019FAB5F1FF3FACBF8B
:1030B0008146A0F10109ABEB090B09EB050358466A
:1030C000069300F011FA18A9A0F17D05584600F00A
:1030D0002BFA14AB089AA9EB0505019312AB0292E7
:1030E0005146009318AA2B46059800F02CFFB9F121
:1030F000010F04460D4600F2D880099B002B40F0DA
:10310000CB8001276FE0059A43F4801AA5F235457C
:1031100002F001024FEA8A080992059A134348EA2D
:1031200092784FEA82074BD140F2FE7319420CBFEE
:1031300001260026002D3246B1DB284600F0C8F9F2
:103140000346032DC8BF013B1846069300F0CCF997
:10315000069B7C3018A95D1B0544184600F056FA02
:1031600014AB18AA0598019312AB5146029600932E
:103170002B4600F0E8FE069B04460D46152B00F298
:10318000888016AB734A3846414600934FF0CC33E3
:1031900000F096FF169B179A9B0843EA827303EB95
:1031A0008303BB42DDE9129A0CD13846414600F058
:1031B000A3F9069B83428CBF00270127002612E05B
:1031C0000126B7E7099B002B53D1013F48F1FF319E
:1031D000B81B61F1000100F08FF9069B099F834243
:1031E0008CBF002601260D9B002B40F09380DDF85C
:1031F0002CB04FF000084FF00A0ACDF82080CDF82F
:103200001480DDE91201FFF7F5FE149BCDE90E01F4
:10321000184615991093FFF7EDFE0E9B81460F9A05
:1032200098420B461191934180F08E8020462946AA
:10323000FFF7E0FE0AFB09F3109AB8F1000F14BF84
:10324000002707F001070AFB10480D46934214BF00
:10325000002606F001060E9B5FFA88F804461293DA
:103260000F9BCDE91339119B1593089B01330893EC
:10327000C7E7B81C48F1000100F03EF9069B834205
:103280008CBF00200120B9EB00006AF10002CDE9FB
:10329000120200273E46A6E7129B0127139A013B24
:1032A00042F1FF32CDE9123288E7B9F13E0FF0D892
:1032B0004FF0FF33A9F12000C9F1200103FA09F210
:1032C00003FA00F023FA01F103FA09F3024327EAB3
:1032D00003070A4328EA020857EA08070CBF012738
:1032E00000276BE700FB02FC0133A1FB00126244E4
:1032F0008C4275EB020CF5D2069A13440C9A1344D7
:10330000D20F9342B8BF13460B9A9A42A8BF1A46EF
:1033100093466EE70A21002201230846E8E70AFBEC
:1033200003F00131A2FB0A230344944275EB03002E
:10333000F5D2594510DDBBF1000F02D154EA050367
:103340000AD00123059371E70A2200230121ECE74B
:10335000CCFBFFFFCDCCCCCC7EB34FF00A0A149B44
:10336000159918460F93FFF745FE0F9B0AFB00F2D5
:1033700081460E919A4220D1B8F1000F14BF002768
:1033800007F00107DDE91201FFF734FE10900F91FD
:1033900020462946FFF72EFE0F9B0AFB1048109A85
:1033A00004460D465FFA88F81292CDE913390E9B58
:1033B0001593089B01330893D1E7069B089A1344A1
:1033C0009946002F5DD0B8F1050F5AD114F00103D2
:1033D0004DD1059A32B9DDE914239D4208BF9442CC
:1033E00062D0059B18194FF00A044FF000024FF00D
:1033F000010645F100012546A04271EB020756D2B5
:10340000FBB1B3451DDA0D9B73B106EB09030C9AB2
:103410001A44012A13460B9AB8BF01239A42A8BF47
:103420001A46964293460CDD053009F1010906F172
:10343000FF364FF00A024FF0000341F10001FCF7A4
:103440000FFF5E450FFA89F9079BA8BF5E4636B2AB
:10345000B14406F1050809F1FF3798444FF000091F
:10346000B1452BDB079B0A9A1F601A71F5E5059B96
:103470002BB9DDE914239D4208BF944209D00123F2
:10348000B0E7059B53B9DDE914239D4208BF944280
:1034900004D1099B002BF2D1002EF0D0B8F1040F1B
:1034A00094BF002301239DE74FF00408F1E705FBDB
:1034B00002F70136A4FB05423A449DE70A220023A5
:1034C000FCF7CEFE303209F1010908F8012DC7E7FB
:1034D000014B5843800C704741340100014B584365
:1034E000000D7047FB2E0B00024B5843C00C0130FF
:1034F000704700BF4F93120070B50346094A002081
:103500004FF0CC364FF0333506FB03F402FB014499
:10351000A3FB023121449D4275EB010401D301302C
:10352000F2E770BDCDCCCCCC1A232DE9F04FB0FB27
:10353000F3FA334E03FB1A0389B004460D4606EB3B
:103540000A1653B9D6E90023C1E90023D6E90201DE
:10355000C5E9020109B0BDE8F08F2A4A02EBC303B6
:10356000D3E9008904AB404649460093D6E90223DB
:1035700000F0A6FD06AB83460F4640464946009341
:10358000D6E9002300F09CFD00238146DDE90662B8
:1035900016EB0B0652EB070828BF012333B1049B3F
:1035A000059A013342F10002CDE90432204603912D
:1035B000FFF79AFF07461A2000FB0AF0FFF794FF77
:1035C0003F1A3246434648460399009700F093FD60
:1035D0000D4A4FEA141C640004F01E0352F82C40FC
:1035E000DC4004F003042418304641F10001DDE919
:1035F0000423C5E900414146009700F07CFDA7E7A0
:1036000088470000B8460000744A00002DE9F04FDA
:103610001A2700F11905DFF8E8A089B004460E4624
:10362000B5FBF7F56F434FEA051B0AEB05153A1A90
:103630000AD1D5E90023C1E90023D5E90201C6E991
:10364000020109B0BDE8F08F2B4B03EBC203D3E9B5
:10365000008904AB404649460093D5E9022300F0B7
:103660002FFD5AF80B206B68013ACDE9020106A93B
:1036700063F1000340460091494600F021FD8A466F
:10368000029900238146DDE906526D18039952EB39
:10369000010828BF012333B1049B059A013342F18D
:1036A0000002CDE904323846FFF71EFF07462046E8
:1036B000FFF71AFF3F1A2A464346484651460097ED
:1036C00000F019FD0D4A4FEA141C640004F01E03BB
:1036D00052F82C40DC4004F003040134241828463E
:1036E00041F10001DDE90423C6E9004141460097AC
:1036F00000F001FDA3E700BFB8460000C84A000083
:10370000584800007047836800EBC101B3F5004FD3
:103710002CBF51F8220031F81200704700EBC101B4
:103720008068B0F5004F2CBF41F8223021F81230EC
:103730007047012208B5FFF7E6FFD04008BD836857
:1037400000EBC101B3F5004F08D34B681AB143F049
:1037500001034B60704723F00103FAE74B881AB16D
:1037600043F001034B80704723F00103FAE7530055
:103770000122FFF7D3BFB0F5004F34BF0423082365
:10378000481C0833A0EBD300B0FA80F0C0F11F0052
:1037900070472DE9F0410D4686680446FFF7C9FFE2
:1037A000B6F5004F014601D3012832D03046FFF76D
:1037B000E2FF04EB80010E6996B90122E3688240C2
:1037C0001343E36002220D612B4629462046FFF792
:1037D000A5FF032229462046BDE8F041FFF79EBF22
:1037E000022231462046FFF78EFF07460346294650
:1037F0002046FFF793FF0322334629462046FFF772
:103800008DFF39462B462046FFF788FF02223146BE
:10381000E1E7BDE8F081B2F5802F2CBF0823042337
:103820002DE9F0410026D21A8C18CD1D25F0070590
:1038300024F00704641BE408056021462046AC60C0
:10384000EE60FFF798FF421D9200013002F107077A
:103850004FEAD7073146A2F1100205F11000B8BFB8
:10386000324600F035FB3A4631462846FFF77FFFE7
:103870003346324631462846FFF750FFA4EB07088F
:10388000284631460122FFF75AFF42463946FFF7E4
:103890006EFF3B46324639462846FFF73FFF21463A
:1038A0002846FFF764FF4346324621462846FFF785
:1038B00035FF214628460122FFF741FF3946BDE882
:1038C000F041FFF766BF002070470FB407B504A9A9
:1038D00051F8040B0191FCF76FFE03B05DF804EBA7
:1038E00004B0704770477047A0F101000028FBD179
:1038F000704710B50446FCF7EDFF2046BDE81040C8
:10390000FDF708B870B514460D4606461046FDF79B
:103910000DF82046FCF7D0FF324629462046BDE888
:103920007040FCF7E9BF012801D1EFF30583FEF7F2
:1039300053B801460068FFF7F6BF08B5FDF7E8F990
:10394000BDE80840FDF708BA00210120FFF7EBBFF2
:1039500061B662B680F31188BFF36F8F704772B69D
:10396000002383F31188BFF36F8FBFF34F8F30BFF6
:1039700062B6BFF36F8F704708B5FDF7E9FC002012
:1039800008BD0020704708B5FCF790FE002008BD78
:1039900038B514464568D1B1CAB12878FCF70CFF98
:1039A0006A68052A04D8DFE802F0090909100C0E3C
:1039B0000523B0FBF3F02060002038BD01239340C5
:1039C000F7E70823F5E70323F3E70623F1E76FF0B2
:1039D0001500F2E7436800209B68DB889BB20B6010
:1039E00070474368986803889BB25A400A40534026
:1039F0009BB2038000207047436800209B681A88B0
:103A0000114389B219807047436800209A6813886F
:103A10009BB223EA010313807047436800209B6830
:103A20001A88514089B21980704730B50368136015
:103A30000579046804EBC504A34202D36FF00100CA
:103A400030BD5C798C4201D00833F0E70020F7E705
:103A50000269436812795B682AB1DA8AD00607D115
:103A60004FF0FF3070471A795206F9D55B7900E0C4
:103A70005B7CDBB200200B707047026943681279EF
:103A80005B6832B1DA8AC2F30422082AFAD8D97301
:103A900070471A79D209FCD0D970704743685A68C8
:103AA0001379D9B213F020031ABF2023012018463E
:103AB00011F0080F1CBF43F0080340F00200C906D4
:103AC000117948BF43F0100321EA030348BF40F0D7
:103AD000040013717047F0B5076946683879E8B992
:103AE000002A1ADD73681A79D2091EBF0A780120EC
:103AF000DA7012E0085CE073D8B28242746808DDC4
:103B0000E58A97F804C0C5F30425654503F1010370
:103B1000F0DB237903F07B032371F0BD0023EBE797
:103B200070B50369456818796B68E0B9002A05DD4E
:103B30001A79520642BF01205B790B706A681379CB
:103B400003F0BF0313710DE0647C0C54D8B28242C1
:103B50006C6803DDE68A0133F606F5D1237903F0BC
:103B6000BE03237170BD0023F0E70269416812793A
:103B70004B684AB11A7902F07B021A714A6893784D
:103B800043F08403937070477B22F6E743685A68DA
:103B9000937803F07B03937070474268036952681F
:103BA0001879927828B1D20906D0D86FC0F3C01026
:103BB0007047D209F9D170470020FCE743685B6881
:103BC0009B785B0743BF0369D86FC0F38000002078
:103BD0007047416802694B6810791A7940B102F068
:103BE000BE021A714A68937843F04003937070479D
:103BF00060F38612F5E743685A6893786FF386138B
:103C0000937070474268036952681879927840B19E
:103C100051060CD5DB6F13F0410F14BF01200020BB
:103C20007047520604D5D86FC0F38010704700204B
:103C300070470269436812795B688AB19A781B7988
:103C40001106D0B2DBB202D513F0840F17D110F0F9
:103C5000400015D013F0790F14BF012000207047E9
:103C60009A781B79D0B21206DBB202D513F0840F1A
:103C700005D110F0400003D013F0780FECE70120DD
:103C8000704742680169536801201B79DBB2CB673A
:103C9000516883F038030A7913400B717047036948
:103CA000C3E91D12704702690020536B0B60936BD0
:103CB0004B6070472DE9F8430E460469304604F125
:103CC0003C09494604F1700304F15C02FDF7C4FCB1
:103CD000054690B904F104084046FCF737FE494612
:103CE00007464046FCF762FE074311BF6FF004052C
:103CF00033686363736808BFA3632846BDE8F8832D
:103D0000704740B1C368587810F001001EBF1878A2
:103D1000B0FA80F040097047EFF31183102383F36A
:103D20001288BFF36F8FFEE708B5FFF7F5FF10B5F8
:103D3000D0E9003433B90020E268537843F001033E
:103D4000537010BD204698470028F4D00028B8BF13
:103D50004042FF28A8BFFF20E3681870ECE700F09E
:103D6000B7B800F0A8B87047102408B5EFF3118376
:103D700084F31288BFF36F8FFFF7F1FDF6E7FEF7CC
:103D8000C1B8D0E9003213605A600023C0E90033A3
:103D9000704708B5FFF7F5FF437B23F00203437339
:103DA0000023836008BD10B5EFF31184102383F363
:103DB0001288BFF36F8FFDF7AFFF84F31188BFF355
:103DC0006F8F10BD10B50446183000F05BF8EFF3AC
:103DD0001181102383F31288BFF36F8F627B1A4027
:103DE00004D081F31188BFF36F8F10BD2046BDE86A
:103DF0001040FDF7C5BF38B50446EFF31185102319
:103E000083F31288BFF36F8F437B13F0280F0BD11E
:103E100083680BB1FFF7BDFF637B51B903F0FB0370
:103E200020466373FDF778FF85F31188BFF36F8F2A
:103E300038BD03F0EB03F3E701211838FFF7DBBFD0
:103E4000EFF31181102282F31288BFF36F8F027B90
:103E5000D2070CD581F31188BFF36F8F002383F352
:103E60001188BFF36F8F0423184602DF7047437B2E
:103E70001B0704D581F31188BFF36F8F70470122B0
:103E8000FDF77EBF10B5EFF31184102282F3128884
:103E9000BFF36F8F03683BB1FEF7F2F9002084F3A4
:103EA0001188BFF36F8F10BD6FF01500F7E708B5ED
:103EB000FEF704FB08BD0A44431E914200D170473F
:103EC00010B511F8014B914203F8014FF9D110BD23
:103ED00002440346934200D1704703F8011BF9E7FF
:103EE0000246014410B58A42134603D01C780132C1
:103EF000002CF8D1181A10BD2DE9F047C3F137098D
:103F00000746884603F01F055FFA89F916464FF009
:103F1000000A384641462A465346FCF7A1F9434673
:103F2000D4B23A4688460746092C84BF4C44E4B2D2
:103F3000AA4204F1300473EB0A0306F8014BE8D2FD
:103F40003046BDE8F0872DE9F04F061889B0994654
:103F5000154641EB010404AB3046DDF84CB0214678
:103F60000093A9F1410AD2E9002300F0A9F806ABB9
:103F700007468846304621460093D5E9022300F0E3
:103F80009FF80022DDE90463841951EB0306069BC8
:103F900028BF0122D5E90001D218079B43F1000395
:103FA000381848EB0101B84271EB0801E968039148
:103FB00038BF0120A96828BF0020CDF800A014EB6D
:103FC000010C039946EB010110EB0C0041F10001DB
:103FD000A04271EB060C34BF4FF0010C4FF0000C07
:103FE000CDE906231CEB020243F1000300F083F845
:103FF000129BC3E90001149B012BDDE9062329D1A3
:10400000D5E90201D5E900C5201ACDF800A066EB7C
:104010000101674578EB050534BF01250025401BEC
:1040200061F10001844276EB010534BF01250025D2
:10403000521B63F1000300F05EF8DDE90623CBE9D3
:10404000000120463146CDF800A000F054F809B038
:10405000BDE8F08F17EB070E48EB080C201946EB74
:104060000601BE457CEB080834BF01270027C719AD
:1040700041F10008D5E9000186457CEB010C34BF15
:1040800001200020D5E90215381A68F1000C401A09
:104090006CEB050192185B41A74278EB060534BF33
:1040A00001250025521943F10003874278EB0108EE
:1040B00034BF01250025521BA9F140050095B8E742
:1040C000F0B50F460446A0FB0201059EA7FB025275
:1040D0004919A3FB0445A7FB037342F100026118D1
:1040E00045F10004D21943F10003121943F1000312
:1040F000C6E90023F0BDF0B5059CC4F14007C4F14A
:104100002006A4F12005E04002FA06F6BB4022FAA0
:1041100005F5BA403343C4F120062B4301FA06F6F5
:10412000A4F12005304321FA05F5E1402843194365
:104130001043F0BD2DE9F04357EC106B3B4634467D
:10414000FE0F40F2FF77C3F30A55C3F31303067162
:1041500054EA030C07D0BD420CD146F008060671A4
:104160000020BDE8F083002D64D0BD425FD146F051
:104170000406F4E7002D5AD10125A5F2FF350029E8
:1041800005605ADB0C295ADCC1F10D050126AD0092
:1041900005F1FF3EA5F1210CC5F1210706FA0CFC43
:1041A00026FA07F706FA0EF64CEA070CB7194CEB9D
:1041B0000C09D7F1000869EB490E013F49F1FF39BD
:1041C000274009EA0309BE427CEB090910DBC5F16F
:1041D0002009B5F1200724FA05F503FA09F958BFBB
:1041E00043FA07F745EA090558BF3D43ED0703D5F4
:1041F000A619344643EB0C0304EA080403EA0E0351
:1042000000F112050D260846C2F127024FF0300ECC
:1042100004F00F01240906F1FF3C6F1E44EA037409
:104220001B11B1B9B0420CDA66463D46F0E743F4E3
:104230008013A2E72C462B46A1E70021E0E70D21E1
:10424000DEE785F800E01CF1010166463D46DFD15E
:1042500087E70929C8BF8918B04201F13001B8BF0A
:1042600030462970EFE70000014800687047000001
:044270009004002096
:0842740020C0FF7F01000000E3
:10427C001D06000000000000873900007843000094
:10428C0083390000EC4200008339000064430000D5
:10429C00833900003C4300008339000028430000B0
:1042AC0083390000144300008339000000430000F0
:1042BC008339000050430000000000008C430000D4
:1042CC00F1160000A0430000ED13000000000000F8
:1042DC000918000000000000791300000000000025
:1042EC00614B00004C490000844900009C000020F8
:1042FC0000000000664B0000544900008449000097
:10430C009E000020000000006B4B00005C49000088
:10431C0084490000A000002000000000714B000048
:10432C006449000084490000A20000200000000045
:10433C00774B00006C49000084490000A400002069
:10434C00000000007D4B000074490000844900000F
:10435C00A600002000000000834B00007C490000F8
:10436C0084490000A800002000000000884B0000D9
:10437C000000000000000000AA0000200000000067
:10438C009B4B0000B4490000C4490000AC00002065
:10439C00A4040020A94B0000E8490000104A0000CA
:0843AC00AE0000201400002007
:1043B400A0430000B9150000A0430000E11500006F
:1043C400A043000009160000A043000031160000BD
:1043D40000000000493900000000000049390000D5
:1043E40000000000493900000000000049390000C5
:1043F40000000000493900000000000049390000B5
:1044040000000000493900000000000049390000A4
:104414000000000049390000000000004939000094
:104424000000000049390000000000004939000084
:104434000000000049390000000000004939000074
:104444000000000049390000000000004939000064
:104454000000000049390000000000004939000054
:104464000000000049390000000000004939000044
:104474000000000049390000000000004939000034
:104484000000000049390000000000004939000024
:104494000000000049390000000000004939000014
:1044A4000000000049390000000000004939000004
:1044B40000000000493900000000000049390000F4
:1044C40000000000493900000000000049390000E4
:1044D40000000000493900000000000049390000D4
:1044E40000000000493900000000000049390000C4
:1044F40000000000493900000000000049390000B4
:1045040000000000493900000000000049390000A3
:104514000000000049390000000000004939000093
:104524000000000049390000000000004939000083
:104534000000000049390000000000004939000073
:104544000000000049390000000000004939000063
:104554000000000049390000000000004939000053
:104564000000000049390000000000004939000043
:104574000000000049390000000000004939000033
:104584000000000049390000000000004939000023
:104594000000000049390000000000004939000013
:1045A4000000000049390000000000004939000003
:1045B40000000000493900000000000049390000F3
:1045C40000000000493900000000000049390000E3
:1045D40000000000493900000000000049390000D3
:1045E40000000000493900000000000049390000C3
:1045F40000000000493900000000000049390000B3
:1046040000000000493900000000000049390000A2
:104614000000000049390000000000004939000092
:104624000000000049390000000000004939000082
:104634000000000049390000000000004939000072
:104644000000000049390000000000004939000062
:104654000000000049390000000000004939000052
:104664000000000049390000000000004939000042
:104674000000000049390000000000004939000032
:104684000000000049390000000000004939000022
:104694000000000049390000000000004939000012
:1046A4000000000049390000000000004939000002
:1046B80001000000000000000500000000000000EC
:1046C80019000000000000007D000000000000004C
:1046D8007102000000000000350C0000000000001E
:1046E800093D0000000000002D310100000000001D
:1046F800E1F505000000000065CD1D000000000088
:10470800F902950000000000DD0EE902000000003B
:10471800514A8D0E000000009573C2480000000049
:10472800E941CC6B010000008D49FD1A070000002B
:10473800C16FF28623000000C52EBCA2B1000000A4
:10474800D9E9AC2D780300003D9160E458110000D0
:1047580031D6E275BC560000F52E6E4DAEB10100A3
:10476800C9EA268367780800ED95C28F055A2A00A2
:10477800A1EDCCCE1BC2D30025A4000A8BCA22040B
:104788000000000000000000000000000000001011
:104798000000000000000000B9340332B7F4AD1483
:1047A80010DB1AB30892540E0D307D951447BA1ACF
:1047B80066088F4D26ADC66DF598BF85E2B74511E1
:1047C800CA96853D92BD1DEBFCA11860DCEF521620
:1047D8003C92AE220BB8C1B4839D2D5B0562DA1CF6
:1047E800304C7E8F4E8BB25B16F4529F8B56A512BF
:1047F800FBD4827643ED8AF08FE7F93115651918F5
:1048080050F19BD94A13EEB4284CF0A686C1251F57
:10481800035FC270CB9E4916E642889C44EB201485
:10482800B0650836AD6EA58585F0CA14E2FD031A99
:104838000B899979D5B13D09D8DA973A35EBCF107C
:10484800AC363F5E73BB38CF3E6752FA44AFBA15F9
:10485800010000000000000000000000000000202F
:10486800345065C05FC9A652BB13CBAEC440C21852
:1048780006C8DF7100D5A87CF56F0FDA58FC27133E
:104888006E4756357D24206502C7E768E48CA41D71
:10489800E9E60268D7CD39617977FCC2405BEF164B
:1048A800798CDE43FFA751F991F3B278F5BDBE11BB
:1048B800E857E9D6E8BEE87BB054AC8F848D751B09
:1048C800EA23A499E9F9D38BB7A3714061DA3E15BD
:1048D800CEE33ECB73F948088C97B427D51B7010EC
:1048E800A2BFEFB9EB8532154DB44DB49BBB6F1920
:1048F80096B6076CF8E7EEAD36D9B4F59135AE1338
:10490800222218AF4E6A684D91DAAA3D4F40741EB4
:104918009FBD9EE006A1C09857C2A7FDA40E9017A0
:104928000E7D497173E3208FB220D87605143B12AF
:10493800853D7434811343B0AD297A5F27F4351C63
:10494800040000200500000002000000050000002F
:104958000100000005000000010000000500000043
:104968000200000005000000020000000500000031
:104978000100000005000000000000009D13000079
:10498800C51300000000000091390000000000007D
:1049980000000000000000000040084004400840FB
:1049A800084008400C40084010400840FFFF000045
:1049B8000000000000000840FF0000003D14000057
:1049C800D5390000E3390000F9390000093A000040
:1049D8001B3A00000000000000000000000000007A
:1049E800F049000000801140F84900000100000073
:1049F800004A000002000000B400000000000104AA
:104A0800A400000000000104513A00007B3A0000B5
:104A18009D3A0000B53C0000A73C0000D73A0000D2
:104A2800213B00006B3B00008D3B00009B3B0000DE
:104A3800D33B0000F73B0000BD3B0000053C0000F5
:104A4800691500008D150000333C0000833C000010
:104A58009F3C00007C4200007C420000DC420000D9
:104A6800E4420000EC420000EC42000000000000BC
:104A780000000000000000000000000000000040EE
:104A880095596959555554551555555604051541A7
:104A9800105455404551554440455044505555458E
:104AA80000400040400444966555565545404554DD
:104AB8005141154055915555555540510501000036
:104AC800544554544555050400100410140440007E
:104AD80000000140555515415404000044000100F0
:104AE80000000040410000445044455054005555D2
:104AF80054556551004000400100000100050100C7
:104B08001154515154555505000000000000000093
:104B18000000000001000200080010000600080064
:104B28001000180020004000600080000001800193
:104B38000002000400084F4E004F4646004C454412
:104B48002073746174653A2025730A000403010C0C
:104B580000091408111C10191866636C6B00626355
:104B68006C6B0070636C6B640070636C6B630070DB
:104B7800636C6B620070636C6B610069636C6B00E3
:104B880070636C6B626C6F636B40343030383430F8
:104B98003030006770696F40343030383030303032
:104BA8000075617274006D61696E002A2A2A2042BC
:104BB8006F6F74696E67205A6570687972204F53F9
:104BC800206275696C642076332E372E39392D6E44
:104BD800637332202A2A2A0A00696E66006E616EA3
:084BE80000286E756C6C2900B9
:104BF000C738000000000000793900000000000004
:104C000000000000A04300000000000000000000C1
:104C10000000000000000000000000000000000094
:104C20000000000000000000000000000000000084
:104C3000000000000000000000C2010000010300AD
:104C4000000000000100010101020103000000005A
:104C50000000000000000000000000000000000054
:104C60000000000000000000000000000000000044
:104C70000000000000000000000000000000000034
:0C4C8000000000009400002094000020C0
:104C8C000000000000000000000000000000000018
:044C9C000000000014
:044CA00015E015E026
:020000040100F9
:10A10000FFFFFFFFFFFFFFFFFFFFFFFFFFFFFFFF5F
:04A11000FFFFFFFF4F
:04A13400FFFFFFFF2B
:10A20000FFFDFFFFFFFFFFFFFFFFFFFFFFFFFFFF60
:10A21000FFFFFFFFFFFFFFFFFFFFFFFFFFFFFFFF4E
:10A22000FFFFFFFFFFFFFFFFFFFFFFFFFFFFFFFF3E
:10A23000FFFFFFFFFFFFFFFFFFFFFFFFFFFFFFFF2E
:10A24000FFFFFFFFFFFFFFFFFFFFFFFFFFFFFFFF1E
:10A25000FFFFFFFFFFFFFFFFFFFFFFFFFFFFFFFF0E
:10A26000FFFFFFFFFFFFFFFFFFFFFFFFFFFFFFFFFE
:10A27000FFFFFFFFFFFFFFFFFFFFFFFFFFFFFFFFEE
:10A28000F8F8FFFFFFFFFFFFFFFFFFFFFFFFFFFFEC
:10A29000FFFFFFFFFFFFFFFFFFFFFFFFFFFFFFFFCE
:10A2A000FFFFFFFFFFFFFFFFFFFFFFFFFFFFFFFFBE
:10A2B000FFFFFFFFFFFFFFFFFFFFFFFFFFFFFFFFAE
:10A2C000FFFFFFFFFFFFFFFFFFFFFFFFFFFFFFFF9E
:0400000300001005E4
:00000001FF
