:020000040800F2
:1000000058100020990800088D0500088508000890
:100010008508000885080008850800080000000021
:10002000000000000000000000000000950900082A
:10003000850800080000000061090008A5150008F7
:10004000E50A0008E50A0008E50A0008E50A0008D4
:10005000E50A0008E50A0008E50A0008E50A0008C4
:10006000E50A0008E50A0008E50A0008E50A0008B4
:10007000E50A0008E50A0008E50A0008E50A0008A4
:10008000E50A0008E50A0008E50A0008E50A000894
:10009000E50A0008E50A0008E50A0008E50A000884
:1000A000E50A0008E50A0008E50A0008E50A000874
:1000B000E50A0008E50A0008E50A0008E50A000864
:1000C000E50A0008E50A0008E50A0008E50A000854
:1000D000E50A0008E50A0008E50A0008E50A000844
:1000E000E50A0008E50A0008E50A0008E50A000834
:1000F000E50A0008E50A0008E50A0008E50A000824
:10010000E50A0008E50A0008E50A0008E50A000813
:10011000E50A0008E50A0008E50A0008E50A000803
:10012000E50A0008E50A0008E50A0008E50A0008F3
:10013000E50A0008E50A0008E50A0008E50A0008E3
:10014000E50A0008E50A0008E50A0008E50A0008D3
:10015000E50A0008E50A0008E50A0008E50A0008C3
:10016000E50A0008E50A0008E50A0008E50A0008B3
:10017000E50A0008E50A0008E50A0008E50A0008A3
:08018000E50A0008E50A000889
:1001880053B94AB9002908BF00281CBF4FF0FF31F6
:100198004FF0FF3000F00CB8ADF1080C6DE904CE5B
:1001A80000F008F8DDF804E0DDE9022304B0704748
:1001B800704700BF2DE9F04786468C460846089EE2
:1001C800154674461946002B40F0C2808542B2FAA3
:1001D80082F245D94AB1C2F1200300FA02FC2EFA94
:1001E80003F3954043EA0C0C94404FEA154EA8B22D
:1001F800BCFBFEF8230C0EFB18CC08FB00F943EA05
:100208000C43994528D9EB1808F1FF3704D29945D2
:1002180002D9A8F102072B44A3EB0903A4B2B3FB4C
:10022800FEFC0EFB1C330CFB00F044EA0344A04226
:1002380014D92C190CF1FF3304D2A04202D9ACF125
:1002480002032C44241A43EA07401EB1D440002379
:1002580034607360BDE8F0874746DDE76346F1E741
:1002680092BB431B01214FEA154EAFB2B3FBFEFC14
:10027800200C0EFB1C330CFB07F840EA034398459F
:1002880062D9EB180CF1FF3004D2984502D9ACF1D1
:1002980002002B44A3EB0803A4B2B3FBFEFC0EFB45
:1002A8001C330CFB07F744EA0344A7424ED92C1928
:1002B8000CF1FF3304D2A74202D9ACF102032C445B
:1002C800E41B43EA0040C0E7C2F1200320FA03F12F
:1002D800954090402EFA03F303434FEA154EAFB210
:1002E800B1FBFEFC0EFB1C10190C0CFB07F841EAD5
:1002F8000041884504FA02F422D969180CF1FF304C
:1003080004D2884502D9ACF102002944A1EB0801C6
:100318009BB2B1FBFEFC0EFB1C110CFB07F743EA7A
:1003280001439F420ED9EB180CF1FF3104D29F42D2
:1003380002D9ACF102012B44DB1B41EA004192E7F0
:100348006046E3E76146F7E76046A3E76346B7E739
:10035800834206D916B9002108467BE7C6E900E0C2
:10036800F9E7B3FA83F78FB9834201D3724508D806
:10037800BEEB020460EB030301209C461EB900217A
:1003880068E73846FAE7C6E9004CF8E7C7F1200CF9
:10039800BB4022FA0CF41C432EFA0CF120FA0CF3A1
:1003A800B84001434FEA14490EFA07F5B3FBF9F8D0
:1003B8001FFA84FE09FB18300B0C08FB0EFA43EAFF
:1003C80000439A4502FA07F240D9E31808F1FF30D2
:1003D80004D29A4502D9A8F102002344A3EB0A03E8
:1003E80089B2B3FBF9F809FB183308FB0EFE41EAA2
:1003F80003418E452CD9611808F1FF3304D28E458C
:1004080002D9A8F10203214443EA0040A0FB029864
:10041800A1EB0E014145CE46434602D306D14D45D8
:1004280004D2B9EB020E68EB04030138002EA6D003
:10043800B5EB0E0261EB030101FA0CFC22FA07F39B
:100448004CEA0303F940C6E9003198E74046C5E79E
:100458004346D9E7F8B5174D284602F0FBFD044698
:1004680030B32A69A968136823F0200313600B6866
:100478004FF42022052128469847002818DB0E4F04
:100488000E4EAB6820215B692846984700280FDB91
:1004980084F0010414F0FF0414BF394631460848BB
:1004A80001F01AFF002142F2107001F00BFDE8E79D
:1004B8000020F8BD1C340008F6380008F938000898
:1004C800FD380008014B1B68184700BF00000020DA
:1004D800014B1860704700BF0000002030B585B0A0
:1004E80004460D4610220021684602F09BFE0223B6
:1004F8008DF802302A46044B01932146684601F0E4
:10050800FDFE05B030BD00BFCD04000880B505462E
:100518000E461746984601F0F3FC034602F0EEFE3D
:10052800DFF81890044649F800304246304639460C
:10053800A84754F8090000F0C1F900BF08000000FE
:10054800034A536823F0020353600020704700BF3A
:10055800002004E0074A136843F010031360064BB9
:10056800064A1A60064A536843F0010353600020A4
:10057800704700BF002002404800002000127A00A7
:10058800002004E008B5034B1B689847BDE8084005
:1005980000F026B80400002030BFFFF7FDBF00BF01
:1005A8002DE9F0410B4EDFF8308006EB0807CC1B35
:1005B800054632460949204602F026FEA019424661
:1005C8000021083C02F02EFE6C6607F10800BDE829
:1005D800F08100BF0000000004000000E8360008B9
:1005E800074A936893F90E10002907DB5269934272
:1005F8001FBF044A536843F080535360704700BFDD
:10060800E402002000ED00E0134B9A6A12F0007F2C
:100618009A6A14BF1E201D2012F0807F9A6A18BFA4
:100628001F2012F4002F9A6A18BF212012F4802F7D
:100638009A6A18BF222012F4003F9A6A18BF232032
:1006480012F4803F9A6A6FEA02426FEA12429A6293
:1006580018BF2420704700BF00ED00E010B5194B0B
:100668000246986A9C6A10F4805F14BF172016200F
:1006780014F4006F9C6A18BF1820A40509D5986B5C
:10068800986A000404D51AB19A6A22F400429A6260
:1006980019200C4B9A6A12F4806F9A6A18BF1A20B4
:1006A800D2050CD49B6A13F4005F18BF1C20054ABE
:1006B800936A43F47F43936200230B7010BD1B20A1
:1006C800F5E700BF00ED00E010B51C4B0246986A44
:1006D8009C6A10F0100F14BF1120102014F0080F9E
:1006E8009C6A18BF1220A40709D5586B986A00069F
:1006F80004D51AB19A6A22F080029A6213200F4B2D
:100708009A6A12F0010F9A6A18BF142012F0200F8B
:100718009A6A18BF1520D40658BF9B6A074B9A6A75
:10072800920642BF5A6A22F400525A629A6A42F00A
:10073800FF029A6200230B7010BD00BF00ED00E0BD
:10074800F0B5474B5B688BB00446C3F3080300253C
:1007580085F31188BFF36F8F02F07F40B0F17F4FB0
:1007680011D102F00C0008280DD010074CBF0C4620
:1007780001250022033B8DF80720032B05D8DFE86D
:1007880003F02462665F2C46F3E700239DF80720F8
:10079800CAB902AE04F1200720686168324603C274
:1007A8000834BC421646F7D1099A002D53D0C2F33B
:1007B800080121B96FEA52226FEA4222099202A97E
:1007C800184602F071F80BB0F0BD254BDA6A9107B4
:1007D800DBD4DA6A002AD8DBDA6A5200D5D55A693E
:1007E800A16942F480725A61BFF34F8FBFF36F8FD4
:1007F8005A6931F8021C22F480725A61BFF34F8F94
:10080800BFF36F8F4DF60272914209D09A6AD2B245
:1008180042B10DF107010120FFF756FF0346B5E786
:100828002368B3E79A6A12F47F4F05D00DF10701E8
:100838000120FFF713FFF1E79B6AB3F5803FA4D3CC
:10084800FFF7E2FEEAE70DF107010020E4E70DF10A
:1008580007010020EDE722F4FF7222F00102ADE764
:1008680000ED00E0044B5A6942F010025A615A69DF
:1008780022F008025A61704700ED00E0EFF30880AB
:10088800EFF3098101B57246FFF75AFF01BD00BFBA
:10089800102080F3118808484FF40061401880F355
:1008A8000988EFF314800221084380F31488BFF30A
:1008B8006F8F00F0A1F8000018030020084B9B6818
:1008C80083420BD1EFF3058343B1064B5A6842F0DC
:1008D80080525A605A6A22F400425A6202F059BCA5
:1008E800E402002000ED00E0094A93686FF00A0175
:1008F800D966084998664B6843F080534B600023DB
:1009080083F31188BFF36F8F9368D86E704700BF69
:10091800E402002000ED00E0EFF31183102383F3DD
:100928001288BFF36F8F094A53699360084A4FF0E2
:1009380000615160074A596E116000219A6E9966EC
:1009480082F31188BFF36F8F704700BFE402002065
:1009580000ED00E0F80100200B498A684FF03000F4
:100968001044EFF3098C80E8F01F74467046FFF7D7
:10097800D3FFA64604498A6802F1300090E8F01FC8
:100988008CF3098870470000E40200201EF0040F71
:100998000CBFEFF30880EFF30980816911F8021C9E
:1009A8000229FFD001B501F085FF01BD40B2002842
:1009B80007DB044A4109012300F01F00834042F885
:1009C8002130704700E100E040B20028A8BF00F1E4
:1009D800604001F10101B8BF064B4FEA0111ACBFFD
:1009E80000F5614000F00F00C9B2B4BF195480F897
:1009F8000013704714ED00E00F4A08B50F4B22F0C2
:100A08007F029A60BFF34F8FBFF36F8FD3F88820B0
:100A180022F47002C3F88820EFF3148323F0040350
:100A280083F31488BFF36F8F00F05CFF01F0F4FAD2
:100A380000F048F800F096FF0000000800ED00E024
:100A480042F8203C009B42F81C3C0A49019B42F8B2
:100A5800183C029B42F8143C21F001014FF08073CE
:100A680042F8043C42F8081C0023203A02658366D9
:100A7800704700BF1505000800B50B4B98600B4B7D
:100A88000E46416E196015462C4686F309884FF0CC
:100A98000000074B984720464FF000014FF0000236
:100AA8004FF00003034C2047E4020020F801002027
:100AB800CD28000815050008014B10221A6170475F
:100AC80000ED00E0044800231021C2180133522B26
:100AD80082F80013F9D1704700E100E008B5EFF3A0
:100AE8000583064A103B02EBC30152F833004968FC
:100AF8008847BDE80840FFF773BD00BF58340008B9
:100B080008B5024B1B689847002008BDFC0100206F
:100B1800034B044A1860937843F0020393707047BC
:100B2800FC0100200800002008B50649064821F00D
:100B38000701C1F1005202F5405201F068FE0020A1
:100B480008BD00BF5F100020000200202DE9F04121
:100B5800104E114F054600244FF001082B7871699B
:100B68001A19D2B208FA02F201EA02008A4309D13C
:100B780053FA84F3706157F833201AB107EBC303B3
:100B8800596890476A780134E3B29A42E6D2BDE8E0
:100B9800F08100BF000401400C020020044B1844FF
:100BA80000230133994200F8012BFADC704700BF9B
:100BB8005400002007B5062201210020FFF7EEFFB0
:100BC800002211460620FFF7FFFE012108460722F2
:100BD800FFF7E4FF002211460720FFF7F5FE082281
:100BE80001210220FFF7DAFF002211460820FFF753
:100BF800EBFE092201210320FFF7D0FF0022114656
:100C08000920FFF7E1FE0A2201210420FFF7C6FFB1
:100C1800002211460A20FFF7D7FE052108461722B1
:100C2800FFF7BCFF002211461720FFF7CDFE282250
:100C380006210A20FFF7B2FF002211462820FFF7FD
:100C4800C3FE074A92E803006B4683E803000548A1
:100C5800826819461268904703B05DF804FB00BF2C
:100C6800E836000890330008034660B1B0FA80F215
:100C7800C2F11F02D2B205498856054A11680B43D2
:100C88001360FFF793BEFF22F5E700BF5400002072
:100C980000040140024A136823EA00031360704706
:100CA80000040140032921D8DFE801F0020C1019E3
:100CB8000F4B9A6822EA00029A60DA6822EA000278
:100CC800DA6070470A4B9A680243F5E7084BDA681E
:100CD8000243DA609A6822EA00029A607047044B7D
:100CE8009A6802439A60DA681043D860704700BF78
:100CF8000004014030B5B0B1B0FA80F3C3F11F036E
:100D0800DBB20B4850F833408C4204D100EBC305EA
:100D18006D68954205D044B940F8331000EBC30024
:100D28004260002030BDFF23EBE76FF00F00F9E7CA
:100D38000C02002060B1B0FA80F3C3F11F03DBB2EC
:100D4800044A002142F8331002EBC3025160704795
:100D5800FF23F5E70C02002000F0030204329200A2
:100D68000F23934043EA900000F003030233064A3E
:100D780052F82320030C02EA104093FAA3F3B3FAC3
:100D880083F3D840704700BF0000014010B5164BF0
:100D980018680B68052B144610D0062B08D86BB1C1
:100DA800013B052B0AD8DFE803F00D0C180C0912DB
:100DB800182B07D01C2B08D0142B03D06FF08500FC
:100DC80002E000202060002010BD4008FAE700F093
:100DD80099F828B100F096F8F4E749F64040F1E7B1
:100DE8006FF00400F0E700BF48000020F8B53A4F64
:100DF8003A4C00F097F8384601F018FE00F098FCDD
:100E08006368374AC3F303131578D35C47FA05F5CB
:100E180020FA03F6AE4202D2284600F0ADFC236861
:100E280043F480232360236843F4803323602368DA
:100E38009B03FCD5636A43F001036362636A980706
:100E4800FCD5636803F00C03082B15D123689907B8
:100E580006D4236843F00103236023689A07FCD56E
:100E6800636823F003036360636813F00C0FFBD11E
:100E7800636823F0F0036360236823F080732360C2
:100E880000F032F8236843F08073236023689B01E5
:100E9800FCD5636823F0F0036360636823F0030301
:100EA80043F002036360636803F00C03082BFAD174
:100EB800AE4202D3284600F05FFC0A4B1F6063680D
:100EC80023F4E06343F480636360636823F460534E
:100ED80063600020F8BD00BF00A24A040010024071
:100EE800BC39000848000020054A536823F47413ED
:100EF80043F4E8135360D36A23F00F03D3627047B7
:100F0800001002404FF4E0134FF4701292FAA2F26C
:100F1800B2FA82F2D340024802335843704700BF06
:100F280000127A00064BDA6942F08052DA61DB6916
:100F380082B003F080530193019B02B0704700BF59
:100F48000010024008B5074802F084F838B1064896
:100F5800FFF7DEFD0448FFF7BBFA002008BD6FF07D
:100F68001200FBE730340008750F00080A2838B56E
:100F7800074D044604D1AB680D215B6828469847A5
:100F8800AB6803485B68E1B29847204638BD00BFAC
:100F9800303400082DE9F843D0F80480D0F81090D8
:100FA800D8F8080017460D461E4601F0A4FCB7F510
:100FB800001F044616D12846D8F80840FFF7CCFE93
:100FC80084420CD1294601F096FC0446FFF762FEE4
:100FD8002046FFF7AFFE00212046FFF763FE002002
:100FE800BDE8F883B7F5800F20D0B6F1806F19D02F
:100FF800B6F1C06F18D0B6F1007F1AD10226104999
:101008004A462046FFF776FEB0B9D8F808102846B9
:1010180001F074FC20463146FFF744FE2046FFF7F6
:1010280023FEDCE70126EAE70326E8E76FF0850000
:10103800D6E76FF01500D3E76FF00F00D0E700BFD9
:10104800412C000838B5036904465860084D284605
:1010580002F000F840B16168AB680C311B682846A3
:10106800984700EAE07038BD6FF01200FBE700BF58
:10107800903300082DE9F0471E4F044600EBC106E7
:101088000025B44201D1002014E02068C30600F016
:101098001F0911D4656845F02005C0F3481AC0F34C
:1010A80044200F2823D857F82080B8F1000F0DD11D
:1010B8006FF01200BDE8F087B9F1100F04D0B9F154
:1010C800110FEAD16568E8E73025E6E7404601F008
:1010D800C1FF0028ECD04B462A460AF00F014046D3
:1010E80001F0C0FD002804F10804CADAE2E76FF055
:1010F8001500DFE79837000843681B6803F108020A
:1011080052E8002F42F0010203F1080040E80021F4
:101118000029F3D1074A934202BF5A6842F04002BD
:101128005A6053E8002F42F4807243E800210029F6
:10113800F7D170470038014043681B6803F1080283
:1011480052E8002F22F0010203F1080040E80021D4
:101158000029F3D1074A934202BF5A6822F040029D
:101168005A6053E8002F22F4807243E800210029D6
:10117800F7D1704700380140F8B503690C465D683F
:1011880023794168012B16D09F1E7E427E41B6020C
:101198006279022A9CBF454F37F81270A27988BF3E
:1011A8004FF40057022A09D0042A2FD0003B18BF59
:1011B80001231B0306E04FF4C066E9E7B3FA83F3A3
:1011C8005B091B07E2790968012A14BF4FF0000C7C
:1011D8004FF4407CA5421CD10A6822F0805222F4C8
:1011E800B05232431A430A604B6823F440533B43DE
:1011F8004B6043681A68936823F4407343EA0C030E
:1012080093602968BDE8F84001F08CBD4FF4805325
:10121800D8E7D1F800E00EF4C06E76451FBFD1F8CC
:1012280000E02EF4C06E4EEA06060E6041680E68B5
:10123800716801F440518F421FBF716821F4405119
:101248003943716041680E68316801F010218B42A2
:101258001FBF316821F010210B43336043681968C0
:101268008B6803F440739C451FBF8B6823F440735D
:1012780043EA0C038B6043681B689968490405D5E9
:10128800032A09D09A6822F4804204E0032A03D191
:101298009A6842F480429A6021682B68994203D088
:1012A80001F040FD23682B60F8BD00BFF03800084E
:1012B8002DE9F3410469476806464848206001F073
:1012C800C9FE20B96FF0120002B0BDE8F0812068B5
:1012D800F96883681B6898470028F5DB386A01AA13
:1012E800002101F0D4FC0028EEDB019B00221979D3
:1012F8001868FFF7BFFE0028E6DB756833692C68BD
:10130800D3F80480236823F001032360686801F0A0
:10131800A1FE0028D6D0D5E901018368DB6803B1B6
:10132800984754E8003F43F00C0344E80032002A91
:10133800F7D141463046FFF71FFF2B7D1BB1A3684D
:1013480043F00803A3606B7D1BB1636843F400435B
:101358006360AB7D1BB1636843F480336360EB7DEE
:101368001BB1636843F4003363602B7E23B31C4BCB
:101378009C4207D0A3F574439C4203D003F58063D5
:101388009C4228D173681A68936843F48043936039
:1013980023686A7E23F0787343EA42532360236804
:1013A800AA7E23F4F81343EA02432360EB7E1BB1C1
:1013B800A36843F40043A360236843F00103236058
:1013C800E3699A02FCD5E3695B02FCD530467B6A87
:1013D8009847002078E76FF0150075E7903300080C
:1013E80000380140F8B5436891F805E01C680369C6
:1013F800024608795D688B7901280E461CD1BEF13A
:10140800020F5CD9022B1F464FF4C0614FF4005CF9
:101418006DD0042B66D020B1C31E012B64D94FF4C4
:101428008050BCF5805F6CD0BCF5405F6BD0BCF1E0
:10143800000F1CD101231BE002280AD1BEF1020FC4
:1014480049D9022B1F464FF480610BD04FF4005C42
:10145800DFE7BEF1020F41D9022B1F4640D1002819
:101468004BD00021C31E012B3ED9002002270323A5
:10147800734539D101F071FCB84235D1F37963B1C4
:10148800012B42D1224B9C4207D0A3F574439C42C6
:1014980003D003F580639C4226D1236823F001031F
:1014A800236031461046FFF767FE236843F00103C7
:1014B800236096E8030085E803000020F8BD4FF498
:1014C800C061144F022B37F81EC01F46A1D170B956
:1014D8004FF08050A5E74FF48061F2E70021F0E774
:1014E8000021B3E700289AD06FF08500E6E7C31E15
:1014F800012BF9D90227002093E701464FF08050CD
:10150800B5E70023B4E70223B2E7032BBAD0EBE731
:1015180000380140F038000810B54FF0E0230F49BB
:101528009C691A6908689B690D4902F4803234B9CC
:1015380093B903464AB90A681044C01A10BD002B73
:1015480008BF03460AB9A342F5D90A6802440A60EB
:101558004FF0E0221269EEE70446F3E7E0020020CC
:10156800DC0200200A4B102283F82320094B4FF499
:10157800E1521A60084B002018604FF0E02341F652
:101588001F425A6198611A6942F007021A6170474E
:1015980000ED00E0E0020020DC020020684620F0B8
:1015A80007018D4619B5FFF7B7FF114B1149D3E96C
:1015B80000420868001942F10002C3E900020E4A1D
:1015C80000230B60D2E900414FF4E153001BB0FB4C
:1015D800F3F043431B1941F10001C2E9003100F067
:1015E800F5FDFEF7FDFFBDE819408546704700BFD1
:1015F80080000020DC020020780000202DE9F04166
:10160800DFF8DC8099B1421C0BD14FF0E02213695E
:1016180023F0010313614FF07F43C8F80030BDE8A1
:10162800F081D8F80060012807DC00270BE0431C94
:10163800D8F80060F7D140F6191040F61A1398420E
:10164800A8BF1846471EEFF31185102383F31288AD
:10165800BFF36F8FFFF760FF224C4FF0E0239969CB
:10166800D4E90023801843F10003C4E900031E4BAA
:1016780000221A601D4B1A68831A2ED44FF4E15CBD
:101688000CFB073303F5E0531F33B3FBFCF7131AC6
:101698000CFB0733B3F5806F154A38BF4FF48063EE
:1016A800934228BF13464FF0E022C8F80030013BB0
:1016B80090695361002393618142A1EB0003D4E94F
:1016C800001238BF9B195B1842F10002C4E90032CE
:1016D80085F31188BFF36F8FA1E74FF48063E2E7CA
:1016E800E002002080000020DC02002078000020BA
:1016F80020DFFF0038B5EFF31185102383F312883C
:10170800BFF36F8F084B1C68084B1B68E41AFFF780
:1017180003FF85F31188BFF36F8F4FF4E153204423
:10172800B0FBF3F038BD00BF800000207800002037
:101738000C4B5A6802F00C01082911D1DB6A0A48DF
:10174800C2F38341D20344BF03F00F03074A405C4E
:1017580049BFD25C064B074BB3FBF2F358437047C3
:101768000448704700100240DC390008CC390008F2
:1017780000093D0000127A00D8B10F4B984216D8E4
:101788000E4B984294BF002001200D4A136823F0A5
:10179800070303431360136803F0070398421CBF51
:1017A800136803F00703C01A18BF0120704702200E
:1017B800EBE70120704700BF006CDC0200366E01C9
:1017C8000020024038B5EFF31185102383F3128807
:1017D800BFF36F8F064B9C6801F04FFC85F31188AF
:1017E800BFF36F8F2046BDE83840FFF767B800BFEA
:1017F800E402002038B5094B53F82040013053F873
:101808002050A54200D838BD636823B1204601F0B6
:1018180037FC0834F5E723689847FAE7D838000812
:1018280070B52B4B2B4C2C4D012286B003201A701F
:10183800FFF7E0FF00F04AFD01F03EFC0420FFF74F
:10184800D9FF2646AE4204F1300410D300F07CFAEA
:10185800204C224EAC4226D300F08AFAFEF7FAFD5D
:101868001F4A137B23F00103137306B070BD54F8AD
:101878000C3C059354F8103C049354F8143C03931F
:1018880054F8183C029354F81C3C019354F8203C3B
:10189800009354E90A2354E90C0100F0C9F854F8FC
:1018A800303C5E65CDE7D4E90A23B3F1FF3F08BFBA
:1018B800B2F1FF3F05D052EA0301206803D101F0DD
:1018C80007FC3034C6E73146183000F005FCF8E76D
:1018D80014030020E8360008E836000893310008B1
:1018E800F800002008B50348034A0021121A01F045
:1018F800DFFB08BD780000201803002070B5144EE7
:10190800144D1549702386B003FB0066012200239D
:10191800CDE904230F22CDE902320193142303FBFE
:1019280000554FF4A072044602FB00110B4B0095C2
:10193800304600F07DF8737B2C7423F00403737336
:10194800074BEE60013403EBC4236B6006B070BD37
:1019580088000020E4020020180B0020C330000893
:1019680018030020BFB50020FFF744FF284B83F37E
:101978000888284C284E6369284F43F40073636134
:101988000025F02384F82230E57725766576A5765C
:1019980084F82050636A43F4E0236362FEF762FF31
:1019A800FFF78AF84FF0FF33A362E3621C4BB36082
:1019B80040F201129A811D6601F04BFB0120FFF7EE
:1019C80019FF0220174CFFF715FF00F0F1F9164B2D
:1019D80074610593012315490095CDE903534FF42C
:1019E80080623B46CDE90155204600F021F8627B34
:1019F800064622F004022046627301F07DFB284669
:101A0800FFF77CFF3A4631462046FFF735F800BF1E
:101A1800180B002000ED00E0E4020020291800085F
:101A280068010020F8000020EC390008580C00205C
:101A38002DE9FF41984600F15803D51DC0E916333A
:101A48000E9B037325F007050423002643730D44FA
:101A58000D9B83730F46C0E9066629468660C673E8
:101A68000446FEF79DFD0C9B029307300B9B0193E8
:101A780020F007000A9B00932D1A43462A46394650
:101A88002046FEF7DDFF054B66659B6803B11B6EBC
:101A98002366284604B0BDE8F08100BFE4020020B8
:101AA80038B50D4D2B4653F8184F9C4200D004B959
:101AB800EC68AB6838B95A7BD20604D1A26912B96E
:101AC800DA897F2A05D89C4202D0204600F04CFAD9
:101AD80023466B6138BD00BFE402002008B590F9C9
:101AE8000D20437B002A014604DA03F07F03437389
:101AF80001F0F0FA044B9868431A58425841BDE87F
:101B08000840FFF7CDBF00BFE402002070B490F991
:101B18000D30427B002B29DBD30627D183692BBBF1
:101B2800134962F07F0242730A4652F8184F9442F2
:101B380018BF2346CC6923B9C0E900242060C861D6
:101B48000CE090F90E5093F90E60B5420AD0AE42FF
:101B580008DD5A68C0E900321060586070BC002087
:101B6800FFF79EBF9C42E7D01B68E4E770BC704754
:101B7800E40200202DE9F041002A427B0E460CBF0A
:101B880010210821114204460FD141EA0203D2096B
:101B980018D1437308291BD00120FFF781FFBFF339
:101BA8005F8F637B23F060036373264B9B68A342BC
:101BB80041D1EFF30583002B3DD13046BDE8F0411C
:101BC800FEF792BE03F07F03437301F083FAE1E767
:101BD800A36813B1204601F085FA04F1180001F05A
:101BE800FAFAA56D04F15807AF4211D04FF000087A
:101BF80075B1284601F076FA05F1180001F0EBFA04
:101C0800C5F86C802846FFF781FFA56DAF42EFD17C
:101C18000C4DAB689C42BFD1EFF30583002BBBD0C2
:101C28000120FFF73DFF084BAB6040F201129A819B
:101C380000221A66B3E786F31188BFF36F8FBDE8F9
:101C4800F08100BFE40200206801002070B590F91F
:101C58000D20437B002A014604DA03F07F03437317
:101C680001F038FA4B7B154A63F07F0310464B733B
:101C780050F8183FD469834208BF002323B9C1E94B
:101C880000042160D1610CE091F90E5093F90E60C7
:101C9800B5420ED0AE420CDD5868C1E90030016093
:101CA80059609068431A5842BDE870405841FFF7A0
:101CB800F7BE9C42E3D01B68E0E700BFE4020020C7
:101CC80049B9EFF3058030B9054B5A699B689A42C8
:101CD80001D0FEF709BE81F31188BFF36F8F7047FB
:101CE800E402002010B5EFF31184102282F3128869
:101CF800BFF36F8F427B510704D484F31188BFF37D
:101D08006F8F10BD22F004024273FFF7FFFE2146D9
:101D18000248BDE81040FFF7D3BF00BF15030020FD
:101D2800034648B9EFF3058232B9064A5169926809
:101D3800914201D0FEF7D8BD83F31188BFF36F8FAE
:101D4800704700BFE4020020EFF31181102383F3F2
:101D58001288BFF36F8F054B9A68D37B013BD3730F
:101D680081F31188BFF36F8F704700BFE402002032
:101D780038B5EFF31185102484F31288BFF36F8F01
:101D88000A4B9A68D37B0133D3730020FFF788FE90
:101D980085F31188BFF36F8FEFF3118084F31288F6
:101DA800BFF36F8FBDE83840FFF7BABFE4020020E9
:101DB800024B03F11802C3E906227047E40200202F
:101DC800F8B5EFF31185102383F31288BFF36F8FF3
:101DD80019498868437B03F07F03437301F07AF95C
:101DE8008B685A7B084662F07F025A7350F8182FA6
:101DF800CC69824208BF002222B9C3E900042360EB
:101E0800CB610CE093F90E6092F90E70BE420ED0D1
:101E1800B7420CDD5168C3E900210B605360012013
:101E2800FFF73EFE2846BDE8F840FEF75DBDA2423A
:101E3800E3D01268E0E700BFE402002050EA0103A3
:101E48002DE9F04105460E4603D1FFF7B9FF002002
:101E58002BE0831C71F1FF3329DB01F0D1F92C1839
:101E6800EFF31188102383F31288BFF36F8F124F9B
:101E7800124BB8681860FFF731FEB86810492A4657
:101E88003346183000F028F9BA68537B43F0100342
:101E980053734046FEF728FD01F0B2F9201A63EBB0
:101EA8000303012873F10003D1DBBDE8F0816FF073
:101EB8000104241AD4E700BFE40200200403002030
:101EC80093310008B1F1FF3F08BFB0F1FF3F08B5FB
:101ED80006D10A4B986801F01EF94FF0FF3008BD93
:101EE800FFF7ACFFC11709304FF00A024FF00003AB
:101EF80041F10001FEF744F9F1E700BFE4020020D8
:101F0800014B9868704700BFE4020020044BC01AD8
:101F1800044BC0105843044B01221A54704700BFA9
:101F2800D8010020ABAAAAAA15030020C3897F2BD9
:101F380012D80A4B1B6863B1094B90F90E201B6835
:101F48009A4209DB437BDB0606D1064BC31A18BF4E
:101F5800012303F0010070470023FAE70C03002077
:101F6800080300208800002070B50E4B0E4C1E7C24
:101F780006EB460304EBC3040546204601F02BF9A3
:101F88000A4B002228469A55FFF7D0FF48B1084B64
:101F980008491A68013A2046D317BDE8704000F096
:101FA8009BB870BDE4020020D80100201503002072
:101FB8000C030020151F000838B5EFF31185102316
:101FC80083F31288BFF36F8F104B114A9C68106817
:101FD800A04206D1FFF7C8FF85F31188BFF36F8FC2
:101FE80038BD00211B7C11600A4AD35C002BF3D05A
:101FF8002046FFF79BFF0028EED0637BDB0602D16B
:102008002046FFF723FE2046E4E700BFE402002055
:10201800040300201503002008B50648064A0749AE
:10202800121A01F047F8BDE80840054A0549064874
:1020380001F040B80000002078000020303A000885
:1020480000000000303A000800000020034B1B6825
:102058000BB9FFF74FBB0020704700BF10030020EB
:1020680030B570B10B4B5B6898420AD0036843B136
:10207800D3E90421D0E90445121941EB0501C3E96C
:102088000421D0E9003213605A600023C0E900330C
:1020980030BD00BF4C00002010B50E4B1C689C42A0
:1020A80004D1FFF7D3FF6FF0004010BDFFF7CEFF5C
:1020B800002CF8D0D4E904321B1A62EBE072B3F1B9
:1020C800004F72F10001EEDA002AACBF184600207A
:1020D800EBE700BF4C000020B3F1FF3F08BFB2F1AF
:1020E800FF3FF8B504461D4616465ED08160EFF303
:1020F8001187102383F31288BFF36F8F013275F1B4
:10210800FF3324DA2E49D1E900206FF001039B1A2E
:102118004FF0FF3262EB00009E1B60EB0500012EC2
:1021280070F1000301DA01260020C4E90460254E9D
:10213800D6F800C07568B44508BF4FF0000CBCF174
:10214800000F0DD1C4E900652C6074601CE0FFF736
:102158007DFF013645F10005361845EBE070E4E7F0
:10216800DCE90420D4E90431934271EB000E1DDA56
:10217800D21ADCF8043060EB0100CCE90420C4E991
:1021880000C31C60CCF804403368B34209D09C42B9
:1021980007D10D4B1C6824B9FFF77EFF2146FFF7D6
:1021A8002DFA87F31188BFF36F8FF8BD9B1A61EB87
:1021B8000001AC45C4E90431C4D0DCF800C0BEE776
:1021C800F00100204C000020100300202DE9F84FFA
:1021D800EFF3118C102383F31288BFF36F8FDFF8AE
:1021E800B0A0DFF8B0902C4FC9F80000DAF8000072
:1021F8000024504508BF00200025D7E90021D9F860
:102208000030E04678B3D0E9046C4FEAE37EB3428D
:102218007EEB0C0B05DAF61A6CEB0E04C0E90464CD
:1022280021E0B21841EBE671C0E90445C7E9002195
:10223800FFF716FF88F31188BFF36F8F83689847FD
:10224800EFF31188102383F31288BFF36F8FD9F847
:102258000030DAF800009B1B5045C446C9F800302E
:10226800CBD1D7E900219A1841EBE3730024C7E9E1
:102278000023C9F80040FFF70FFF2146FFF7BEF91A
:1022880088F31188BFF36F8FBDE8F84FFFF794BE4E
:102298004C00002010030020F001002010B5EFF3DF
:1022A8001184102383F31288BFF36F8FFFF7CEFEDC
:1022B800054A0346D2E90001181841EBE37184F39B
:1022C8001188BFF36F8F10BDF0010020014800F0A6
:1022D800DDBA00BFF13900080FB407B5064B04AAF0
:1022E800186852F8041B019200F008F803B05DF872
:1022F80004EB04B0704700BFF03600082DE9F04F3A
:102308008DB043680293837815469A07804640F15A
:102318000D8100240E78002E00F00A81252E0BD0A6
:102328004B1C03930134029B4146304698470028D2
:10233800C0F2F6800399EDE74E788B1C252E0393A7
:10234800F0D00027B946BB46BBF11F0F38D8A6F11D
:102358002003102B0AD8DFE803F02A0909300909FD
:10236800092109090928092D09091F00A6F13003C7
:10237800092B33D92A2E37D11BF0400F55F8043BCF
:1023880040F08280002BA7BF4BF0200B9946C3F189
:1023980000094BF0280B01E04BF0010B039B13F8ED
:1023A800016B0393002ECFD130E04BF0020B4BF0C2
:1023B800040BF3E74BF0080BF0E74BF0100BEDE7DD
:1023C800BBF17F0F19D8A6F13003092BD2D81BF027
:1023D800400F03D00A2101FB0737DFE70A2101FB81
:1023E80009394BF0200BD9E72E2E06D11BF0400FF0
:1023F80040F09E804BF0400BD0E76C2E31D02BD8AC
:10240800682E36D06A2E3CD04C2E3AD0002F46F09B
:102418002003B8BF2BF04002A3F16501BCBF1FFA2F
:1024280082FB0027022901D9612B2FD1073525F01E
:102438000705DFF8ACA2083507271BF0080F66D0A0
:102448000AEB070B56465E4563D1A4EB0A0A06EB76
:102458000A02A9EB07096FE1742E9FD07A2E9DD04E
:10246800D4E71BF0800F18BF4BF4007B4BF0800BB8
:1024780094E71BF4807F18BF4BF4007B4BF4807B00
:102488008CE74BF4207B89E71F4687E7A6F16301B9
:10249800122900F2F080DFE811F013004F00EE007F
:1024A800EE00EE00EE004F00EE00EE00EE00EE0053
:1024B800EE00FE00E900EE00EE001B00EE00AF00AB
:1024C80055F8043B8DF8183001270DF1180AB4E7C8
:1024D80055F804AB834BBAF1000F08BF9A461BF0BE
:1024E800400F14BF39464FF0FF31504600F0A2FEAE
:1024F8000746A2E7029B41462020984700280FDBA9
:10250800013EB742F6D34C44A41BB14698E74E4669
:10251800F7E716F8010B029B41469847002892DA24
:1025280098F8023043F0040388F802304FF0FF3483
:1025380020460DB0BDE8F08F1BF0800F34D01BF49F
:10254800007F2CD0073525F00705AA4669685AF898
:10255800080B2BF010050029ADB237DA404261EBC9
:10256800410145F480650DF1180B0A235A4600F025
:102578006DFEA0EB0B0301936B0662D5019B25F062
:1025880001019F4289B240F3A180002E00F099809A
:1025980015F0100240F09C80BB460D4623E0AA4689
:1025A8005AF8040BC117D4E7AA461BF4807F5AF8DF
:1025B800041B01D10846F5E71BF4007F15BF48B29C
:1025C80008B241F3C01141F3C031C2E750EA010338
:1025D800C9D11BF0400FC6D0002FC4D12BF0110277
:1025E80095B2BB46019740F2064115EA01021CBFAD
:1025F8000BF1010B00222CE02BF010021FFA82FBDA
:102608000A231BF0800C49D01BF400711DBF07354D
:1026180025F00705AA46AA461ABF5AF8080B6968A2
:102628005AF8040B50EA010545D12BF016051BF0AA
:10263800400FADB242D0002F40D12BF0170295B217
:10264800019715F0100248D0019B002E42D103F1EA
:10265800010B29075AD4EB0706D5D9456FDD019937
:10266800A9EB0B035F18CB465B4649E04BF0100B18
:1026780010237826C5E7782B04D1C6F1780343F0F8
:102688001003BEE7029B4146252098470028FFF625
:1026980047AF023447E608230026B2E7AA461BF4F0
:1026A80080715AF8040BBDD01BF400711ABFC0B278
:1026B800614680B2B6E72BF0060295B20DF1180B11
:1026C80054E725F01105ADB2BB468CE70D46B8E7D7
:1026D8003B460D4603F1020BBBE7DDF804B082E789
:1026E800263A00081F3A0008CDE904324146029B09
:1026F800202098470028FFF613AF049B059A013362
:102708009945F1DCA4EB0B01CC189B460AB3029B5C
:102718004146302098470028FFF602AF8EB90134B1
:102728002744019B391B994224DC1D465DBB019A55
:10273800A9EB0B09224455461446914435E0019F04
:1027480092E7023441463046029B98470028E7DA70
:10275800E6E640F206410D42E2D015F0020F14BF42
:102768002B20202015F4806F04F10104414618BF86
:102778002D20E9E7029B414630209847002804F1C4
:102788000104CEDACCE606AB013D4146585D029B1A
:1027980098470028CADAC3E6029B4146202098479A
:1027A800002804F10104FFF6BBAEA9EB0403002BDB
:1027B800F2DCBFE5704700EBC10040884008704775
:1027C800F8B50346FFF7F7FFB0FA80F0C0F11F0035
:1027D80003EB800CCA00DCF81060171D0C460632AB
:1027E8008DB256B9012101FA00F0D9680143D960C8
:1027F800CCF81040DD539D52F8BDF1000431585A11
:10280800D85303EBC0009E52C5805D52F4E7043AEA
:102818002DE9F041CC1D114424F0070421F00701F3
:102828000E1BF708B7FA87F2C2F12405AD004FF086
:1028380000080735C2F12002ED0804604146A76090
:10284800C4F80C80920004F1100000F0EBFC6B005F
:1028580043F00103638004EBC5027B1B5900A4F815
:1028680000805180A21924F83550A2F80280A353A1
:1028780004EBC70329465A8842F001025A802046D1
:10288800BDE8F041FFF79CBF002070470FB407B5C3
:1028980004A951F8040B0191FDF720FE03B05DF87F
:1028A80004EB04B070477047012801D1EFF30583AA
:1028B800FEF788BF01460068FFF7F6BF0021012038
:1028C800FFF7F2BF61B662B680F31188BFF36F8F6E
:1028D800704772B6002383F31188BFF36F8FBFF37D
:1028E8004F8F30BF62B6BFF36F8F704708B5FEF7E2
:1028F80007F9002008BD01208840704700F0030256
:10290800043292000F23934043EA900010B500F080
:1029180003039B0003F1804303F58033020C9C689A
:1029280092FAA2F2B2FA82F224EA104091400143EC
:10293800996010BD0B68A3F11402082A82B012D85E
:1029480003F1804303F5043348681A6802431A60A8
:102958000B6803F1804303F5043300201B680193DF
:10296800019B02B070476FF08500FAE70B68A3F18E
:102978001402082A9FBF03F1804303F50433496812
:102988001A689DBF8A4300201A606FF0850070475F
:10299800062808D86A23C34013F0010F14BF00208B
:1029A8006FF0850070476FF08500704710B50868B4
:1029B800FFF7EEFF002820DB4A68FF2A1CD0D3B2BD
:1029C80003F1804303F50433C2F342341868C2F3B9
:1029D800042204FA02F220EA02021A604968CBB221
:1029E80003F1804303F50433C1F302421868C1F3CD
:1029F80004218A4002431A60002010BD086808B507
:102A0800A0F11403082B0AD800F1804000F5043027
:102A18004B680268934314BF0120022008BDFFF7EA
:102A2800B7FF002814BF01200220F7E7704743686A
:102A38005B681B690B600020704743685B685869D6
:102A480042400A4042405A610020704743685B6830
:102A580000209961704743685B680020996270475D
:102A680043685A6853694B4053610020704710B55A
:102A780003699868F8B1884219D1DC6808689860D9
:102A8800A14200D1D860002008602AB19A680A6083
:102A9800DA68996002B9D960002010E0814206D155
:102AA80008682060D8688142EDD1DC60EBE7044615
:102AB80000680028F2D1002AE8D16FF0150010BD97
:102AC800F0B544680120676888401E46C2F3801349
:102AD80027EA00078B403B43636090FAA0F7B7FAF8
:102AE80087F7D4F808C04FF0030E7F000EFA07F7F7
:102AF8002CEA070C90FAA0F7B7FA87F7C2F3C113CC
:102B08007F00BB4043EA0C03A36090FAA0F3B3FA3A
:102B180083F3E7685B000EFA03F327EA030790FAEA
:102B2800A0F3B3FA83F302F030055B00C2F341224D
:102B38009A403A43202DE26016D107292BD890FA03
:102B4800A0F3226A2BB3B3FA83F39B000F2101FA97
:102B580003F322EA030290FAA0F3B3FA83F39B008B
:102B680006FA03F31343236290FAA0F3B3FA83F34C
:102B7800226890FAA0F05B000321B0FA80F02D09DA
:102B880001FA03F3400022EA030385401D43256050
:102B9800F0BD2B46D9E7030A616A93FAA3F282B122
:102BA800B2FA82F292000F2793FAA3F3B3FA83F3EF
:102BB80007FA02F29B0021EA02029E40164366626F
:102BC800D2E72A46EEE713469A0310B518D59C07B4
:102BD8000FD55A072DD55022DC060CD542F40072C9
:102BE80013F4002F446818D0646801238B40A36154
:102BF8000DE01022F0E79C06F2D542F48062EFE780
:102C0800DC0311D5DA0611D4C3F340139A024068E5
:102C18000023FFF755FF002010BD5B03F7D564685C
:102C280001238B40A362F2E73022F0E74FF40072F1
:102C3800EDE76FF08500EFE770B50B46896805464C
:102C480011B15E680C6801B970BD8A682A4002D06B
:102C58004B68304698471CB1236821461C46F2E76A
:102C68002346FAE7F8B51F46044640680E4615465F
:102C7800FFF726FF112F08D1012303FA06F6636830
:102C88005B682A054CBF9E619E620020F8BD30B586
:102C9800036813600579046804EBC504A34202D3F2
:102CA8006FF0010030BD5C798C4201D00833F0E749
:102CB8000020F7E74368C1F34B101B6801F01F01C0
:102CC800C05801238B40034214BF01230023137013
:102CD8000020704710B54368C1F34B101A6801F023
:102CE8001F01845801238B4023438350002010BDCB
:102CF80010B54368C1F34B14186801F01F0123583D
:102D080001228A4023EA02032350002010BD38B56F
:102D180004460D46FFF7DEFF29462046FFF7E8FF89
:102D2800002038BD37B50269436810681D680C4635
:102D3800D9688368DB6873B101AA984700280ADB61
:102D48002B6823F400432B60019B03EB5403B3FB74
:102D5800F4F39BB2EB6003B030BDB0F5805F07D0F1
:102D6800B0F1805F09D1002914BF0120022070470B
:102D7800002914BF032004207047002914BF022033
:102D88000320704743681B68D869DA69D107DA6994
:102D9800C0F3C00048BF40F002009207DA6948BF9C
:102DA80040F004005107DA6948BF40F02000D2051E
:102DB80042BF4FF4807240F008001A62C10744BF56
:102DC80008221A62820744BF01221A62410744BFDF
:102DD80002221A62820644BF04221A6270474368BC
:102DE8001A6852E8003F43F0400342E800310029E6
:102DF800F7D1704743681A6852E8003F23F0400350
:102E080042E800310029F7D1704743681A6852E850
:102E1800003F43F0200342E800310029F7D1704712
:102E280043681A6852E8003F23F0200342E8003163
:102E38000029F7D1704743681B68D869C0F3401070
:102E48007047012070470369C3E90212704702699D
:102E580093680BB1D1681847704708B50022252040
:102E68001146FDF7B1FDBDE808402520FDF79EBDE0
:102E780008B5002226201146FDF7A6FDBDE808404A
:102E88002620FDF793BD43681B68D869C0F38010FE
:102E9800704743681B68D86910F080001CBF186829
:102EA800C0F38010704710B50269526812680A6052
:102EB80042681268126802F4C062B2F5806F044674
:102EC8000B4633D0A2F5C060424242411A71626893
:102ED8001268526802F44052B2F5805F28D0B2F509
:102EE800405F27D0002A0CBF012203225A71626872
:102EF80012681068116800F0102001F4C061FFF733
:102F08002CFF987162681268926802F44072A2F508
:102F180040714A424A41DA7161680968896811F466
:102F2800804F18BF0322DA71002010BD0222CDE7BE
:102F38000022DBE70222D9E7F8B543681B680D4693
:102F48001868196800F0102001F4C061FFF705FF48
:102F580004281CD0D86910F0800017D0EFF3118630
:102F6800102181F31288BFF36F8F0021CCB2A242E7
:102F7800204607DDDF693F0601F1010102D5285D22
:102F88001885F3E786F31188BFF36F8FF8BD6FF0EC
:102F98008500FBE710B543681B681020DA69120644
:102FA800FCD5EFF3118280F31288BFF36F8FDC69D1
:102FB800240604D482F31188BFF36F8FEEE71985D6
:102FC80082F31188BFF36F8F10BD43681B68DA69FD
:102FD800910602D51A68920607D4D86910F0400005
:102FE80004D01868C0F38010704701207047F8B506
:102FF80043681B680D461868196800F0102001F432
:10300800C061FFF7AAFE042810D000240826E1B208
:103018008A4208460CDDDF69BF0609D5988C6854DA
:10302800D969090700D51E620134F0E76FF0850001
:10303800F8BD43681B68DA69100744BF08221A62A2
:10304800DA69920643BF9B8C0B7000204FF0FF306B
:103058007047704740B1C368587810F001001EBF30
:103068001878B0FA80F040097047EFF31183102305
:1030780083F31288BFF36F8FFEE708B5FFF7F5FFFC
:1030880010B5D0E9003433B90020E268537843F032
:103098000103537010BD204698470028F4D000283B
:1030A800B8BF4042E368FF28A8BFFF201870ECE7CC
:1030B80000F0B8B800F0A8B8704708B51024EFF3CE
:1030C800118384F31288BFF36F8FFFF702FCF6E7D2
:1030D800FEF708BED0E9003213605A600023C0E949
:1030E8000033704708B5FFF7F5FF437B23F0020371
:1030F80043730023836008BD10B5EFF311841023D8
:1031080083F31288BFF36F8FFEF700FD84F31188F5
:10311800BFF36F8F10BD10B50446183000F05BF890
:10312800EFF31181102383F31288BFF36F8F627B53
:103138001A4004D081F31188BFF36F8F10BD204669
:10314800BDE81040FEF716BD38B50446EFF311850B
:10315800102383F31288BFF36F8F437B13F0280F7C
:103168000BD183680BB1FFF7BDFF637B51B903F047
:10317800FB0363732046FEF7C9FC85F31188BFF390
:103188006F8F38BD03F0EB03F3E701211838FFF721
:10319800DBBFEFF31181102282F31288BFF36F8F28
:1031A800027BD2070CD581F31188BFF36F8F002300
:1031B80083F31188BFF36F8F0423184602DF70472B
:1031C800437B1B0704D581F31188BFF36F8F7047CA
:1031D8000122FEF7CFBC10B5EFF31184102282F361
:1031E8001288BFF36F8F03683BB1FEF739FF0020E9
:1031F80084F31188BFF36F8F10BD6FF01500F7E7E8
:1032080008B5FFF74BF808BD0A44914200F1FF33B7
:1032180000D1704710B511F8014B03F8014F9142E6
:10322800F9D110BD02440346934200D1704703F818
:10323800011BF9E710B5024601448A42134603D040
:103248001C780132002CF8D1181A10BDF0B5C3F162
:1032580037070446FFB203F01F031046082BE6B2F7
:1032680033D0102B3ED06508A40844EA817445EA9F
:10327800C1752D194FEA910242EB5102290941EA21
:1032880002716D1842EB1212290A41EA02616D18A7
:1032980042EB1222290C41EA02416D1842EB12421C
:1032A800AD1842F10002EC0844EA4274D10804EB7C
:1032B8008402A6EB4205EDB2092D0CD90134A5F123
:1032C8000A0541F10001EDB212E0E40844EA417454
:1032D80006F00705C908303554EA010200F8015B19
:1032E800BCD1F0BD240944EA017406F00F050909B0
:1032F800092D84BFED19EDB2EDE700000148006823
:0833080070470000F8010020ED
:08331000ACCEFF7F01000000BC
:103318005D05000800000000F50D00089033000866
:10332800490500080000000000000000A433000860
:103338004D100008F43300084D1000081C34000834
:10334800BD0B0008B83300084D1000080834000809
:103358004D100008E03300084D100008CC33000879
:10336800B912000830340008B912000844340008C3
:103378004D0F0008000000006D1500080000000057
:08338800310B000800000000F9
:103390003839000800000000F436000866000020FC
:1033A000000000008B390008D8370008DC3700081F
:1033B00072000020000000001A3900080000000020
:1033C00000000000640000200C02002045390008C5
:1033D0001037000874370008680000208C020020B5
:1033E0005339000824370008743700086A000020A9
:1033F0009C02002061390008383700087437000843
:103400006C000020AC0200206F3900084C37000827
:10341000743700086E000020BC0200207D390008CF
:10342000603700087437000870000020CC020020CC
:103430009C390008EC3700088C3800087400002024
:1034400018000020AC3900083C3800088C3800080F
:0834500076000020300000208E
:1034580000000000C528000800000000C52800087A
:1034680000000000C528000800000000C52800086A
:1034780000000000C528000800000000C52800085A
:1034880018390008550B000816390008550B0008B4
:1034980014390008550B000812390008550B0008AC
:1034A80010390008550B000800000000C528000866
:1034B80000000000C528000800000000C52800081A
:1034C80000000000C528000800000000C52800080A
:1034D80000000000C528000800000000C5280008FA
:1034E80000000000C528000800000000C5280008EA
:1034F80000000000C528000800000000C5280008DA
:1035080000000000C52800080E390008550B000807
:1035180000000000C528000800000000C5280008B9
:1035280000000000C528000800000000C5280008A9
:1035380000000000C528000800000000C528000899
:1035480000000000C528000800000000C528000889
:1035580000000000C528000800000000C528000879
:1035680000000000C528000800000000C528000869
:1035780000000000C528000844340008572E000841
:1035880030340008572E000800000000C528000845
:103598000C390008550B000800000000C528000879
:1035A80000000000C528000800000000C528000829
:1035B80000000000C528000800000000C528000819
:1035C80000000000C528000800000000C528000809
:1035D80000000000C528000800000000C5280008F9
:1035E80000000000C528000800000000C5280008E9
:1035F80000000000C528000800000000C5280008D9
:1036080000000000C528000800000000C5280008C8
:1036180000000000C528000800000000C5280008B8
:1036280000000000C528000800000000C5280008A8
:1036380000000000C528000800000000C528000898
:1036480000000000C528000800000000C528000888
:1036580000000000C528000800000000C528000878
:1036680000000000C528000800000000C528000868
:1036780000000000C528000800000000C528000858
:1036880000000000C528000800000000C528000848
:1036980000000000C528000800000000C528000838
:1036A80000000000C528000800000000C528000828
:1036B80000000000C528000800000000C528000818
:1036C80000000000C528000800000000C528000808
:1036D80000000000C528000800000000C5280008F8
:1036E8001800000001000000080000203D29000823
:1036F8007529000800000000950D0008052A00083B
:1037080000000000B5290008FFFF00000014004871
:10371800050000001400000000004000FFFF00004A
:10372800000C004803000000140000000000100016
:10373800FFFF00000008004802000000140000001D
:1037480000000800FFFF000000040048010000001E
:103758001400000000000400FFFF00000000004803
:10376800000000001400000000000200CF2B000839
:10377800372A0008432A0008552A00085F2A00084B
:10378800692A00089D0F0008772A00080000000039
:103798001C34000808340008F4330008E03300083B
:1037A80000000000CC33000800000000000000000A
:1037B8000000000000000000000000000000000001
:1037C80000000000000000000000000000000000F1
:1037D80000100240BD2C0008DD2C0008F92C000860
:1037E800172D000800440040A4330008110200000F
:1037F800143800080100000000000000000000006C
:10380800000000001C380008792E00081C00000089
:103818000000020024380008010000002C380008CD
:1038280002000000470000000002000067000000DE
:103838000000000000380140A43300088E01000099
:1038480064380008010000000000000000000000CB
:10385800000000006C380008632E00081800000003
:103868000040000074380008010000007C3800089F
:1038780002000000270100000002000047010000CC
:10388800000000003B3000089D2F00088D2D000827
:10389800ED130008AF2E0008412F0008F72F00088D
:1038A800E72D0008FD2D00089B2E0008132E0008A8
:1038B800292E00088F2E00083F2E0008011100084D
:1038C80041110008D32F00084B2E00084F2E000886
:1038D80018330008183300088033000888330008BC
:1038E80090330008903300080010000000304F4E5D
:1038F800004F4646004C45442073746174653A2075
:1039080025730A000A0605050401030102010101E5
:103918000001696E746572727570742D636F6E74D0
:10392800726F6C6C65724034303031303430300036
:103938007263634034303032313030300067706940
:103948006F403438303031343030006770696F4040
:103958003438303030633030006770696F40343845
:10396800303030383030006770696F40343830306C
:1039780030343030006770696F4034383030303060
:1039880030300072657365742D636F6E74726F6C7E
:103998006C65720073657269616C40343030303424
:1039A8003430300073657269616C403430303133C3
:1039B800383030000000000000000000010203045D
:1039C800060708090102030405060708090A0B0C83
:1039D8000D0E0F1002030405060708090A0B0C0D4B
:1039E8000E0F10106D61696E002A2A2A20426F6F2F
:1039F80074696E67205A6570687972204F53206227
:103A080075696C642076332E372E39392D6E6373C1
:103A180032202A2A2A0A00286E756C6C29002A6628
:083A28006C6F61742A000000BC
:103A300091280008A105000800000000F5280008F2
:103A4000000000000000000000000000280000202E
:103A5000000000000000000000C20100000103009F
:103A600000000000400000200000000000000000F6
:103A700000C201000001030000127A004C00002087
:103A80004C000020FFFFFFFFFFFFFFFFFFFFFFFFD6
:043A9000FFFFFFFF36
:103A94000000000000000000000000000000000022
:043AA400000000001E
:043AA80015E015E030
:04000005080008994E
:00000001FF
